:100000000C94E4050C944C1D0C94241D0C940C06CB
:100010000C940C060C940C060C940C060C940C0618
:100020000C940C060C940C060C940C060C940C0608
:100030000C940C060C940C060C940C060C940C06F8
:100040000C94BB1B0C940C060C940C060C940C0624
:100050000C940C060C940C060C940C060C940C06D8
:100060000C94051C0C940C06253032643A25732040
:1000700025632563256300535445503A2530326487
:10008000002020205643463A25640020534C494422
:10009000453A2573004F4646004F4E2000414343EA
:1000A000454E543A2573004E4F20005945530020C9
:1000B00020544945443A2573002020200020202068
:1000C00020202020202020005359534D454E55001C
:1000D000204F463A253364004359433A25336400A0
:1000E000432D00432300442D00442300452D0046AA
:1000F0002D00462300472D00472300412D004123BA
:1001000000422D0000000000003E5B4F5B3E3E6B56
:100110004F6B3E1C3E7C3E1C183C7E3C181C577DA1
:10012000571C1C5E7F5E1C00183C1800FFE7C3E7ED
:10013000FF0018241800FFE7DBE7FF30483A060EFF
:100140002629792926407F050507407F05253F5A46
:100150003CE73C5A7F3E1C1C08081C1C3E7F1422B6
:100160007F22145F5F005F5F06097F017F00668961
:10017000956A606060606094A2FFA29408047E04A7
:100180000810207E201008082A1C08081C2A0808CD
:100190001E101010100C1E0C1E0C30383E3830068D
:1001A0000E3E0E06000000000000005F0000000789
:1001B000000700147F147F14242A7F2A12231308B7
:1001C000646236495620500008070300001C224193
:1001D000000041221C002A1C7F1C2A08083E080837
:1001E00000807030000808080808000060600020E7
:1001F000100804023E5149453E00427F40007249CA
:100200004949462141494D331814127F102745456D
:1002100045393C4A49493141211109073649494983
:1002200036464949291E00001400000040340000F1
:10023000000814224114141414140041221408025A
:10024000015909063E415D594E7C1211127C7F49CD
:100250004949363E414141227F4141413E7F494922
:1002600049417F090909013E414151737F0808084E
:100270007F00417F41002040413F017F081422411F
:100280007F404040407F021C027F7F0408107F3E79
:100290004141413E7F090909063E4151215E7F09E6
:1002A000192946264949493203017F01033F40404D
:1002B000403F1F2040201F3F4038403F6314081438
:1002C0006303047804036159494D43007F41414170
:1002D0000204081020004141417F04020102044051
:1002E00040404040000307080020545478407F28D5
:1002F0004444383844444428384444287F385454CB
:10030000541800087E090218A4A49C787F080404ED
:100310007800447D40002040403D007F102844008C
:1003200000417F40007C047804787C08040478381D
:1003300044444438FC1824241818242418FC7C084D
:10034000040408485454542404043F44243C4040CA
:10035000207C1C2040201C3C4030403C442810287D
:10036000444C9090907C4464544C440008364100C6
:100370000000770000004136080002010204023C40
:100380002623263C1EA1A161123A4040207A38540F
:100390005455592155557941225454784221555488
:1003A000784020545579400C1E52721239555555DB
:1003B00059395454545939555454580000457C41C6
:1003C0000002457D420001457C407D1211127DF006
:1003D000282528F07C545545002054547C547C0A30
:1003E000097F4932494949323A4444443A324A48F9
:1003F00048303A4141217A3A42402078009DA0A0FD
:100400007D3D4242423D3D4040403D3C24FF24244E
:10041000487E4943662B2FFC2F2BFF0929F620C06D
:10042000887E090320545479410000447D413048BE
:10043000484A32384040227A007A0A0A727D0D1901
:10044000317D2629292F28262929292630484D4063
:1004500020380808080808080808382F10C8ACBA5F
:100460002F102834FA00007B000008142A142222DE
:10047000142A14085500550055AA55AA55AAFF5527
:10048000FF55FF000000FF00101010FF00141414AF
:10049000FF001010FF00FF1010F010F0141414FCF7
:1004A000001414F700FF0000FF00FF1414F404FC14
:1004B000141417101F10101F101F1414141F0010F5
:1004C0001010F0000000001F101010101F1010106E
:1004D00010F010000000FF1010101010101010107D
:1004E000FF10000000FF140000FF00FF00001F10BD
:1004F000170000FC04F414141710171414F404F477
:100500000000FF00F714141414141414F700F71467
:100510001414171410101F101F141414F4141010B6
:10052000F010F000001F101F0000001F140000005A
:10053000FC140000F010F01010FF10FF141414FF52
:10054000141010101F00000000F010FFFFFFFFFF4D
:10055000F0F0F0F0F0FFFFFF0000000000FFFF0FE1
:100560000F0F0F0F3844443844FC4A4A4A347E0285
:10057000020606027E027E02635549416338444406
:100580003C04407E201E2006027E020299A5E7A5BB
:10059000991C2A492A1C4C7201724C304A4D4D302C
:1005A0003048784830BC625A463D3E494949007E51
:1005B0000101017E2A2A2A2A2A44445F44444051E8
:1005C0004A444040444A51400000FF0103E080FF9C
:1005D000000008086B6B083612362436060F090F28
:1005E00006000018180000001010003040FF010144
:1005F000001F01011E00191D1712003C3C3C3C006D
:1006000000000000000103070F1F3F7F0080C0E0D3
:10061000F0F8FCFE000000080002010000030407DF
:10062000000000000000000000000000240027007F
:100630002A00DB40A4A62EAF2000A1C8D300408D25
:10064000AED580A800000000250028002B00000087
:10065000600000000000000000000000000000E05A
:100660000000000000000000000000000001E000A9
:1006700000000000000000000000000001F0000089
:10068000000000000000000000000003F000000077
:100690000000000000000000000007F00000000063
:1006A00000000000000000000007F800000000004B
:1006B00000000000000000000FF800000003C00070
:1006C0007E000001E0007F0FF800000003C000FE84
:1006D000000001E000FFEFF800000003C000FE0092
:1006E0000001E000FFFFF800000003C000F0000080
:1006F000000F007FFE7FC0000003C000F00000007C
:100700000F003FFE7FF83FF1FBCFFCFEF3BC3DEF57
:10071000E01FFE7FFF7FFBFFDFFEFEFFBC3DEFE043
:100720001FC6FFFF7FFBFFDFFEFEFFBC3DEFE00FBC
:10073000E3C7FE787BC3DE1EF0FFBC3DEF0007FF82
:1007400087FC787BC3DE1EF0F83C3DEF0001FFFF25
:10075000F0007BC3C01EF0F03C3DEF0001F37FE0F2
:100760003FFBC3CFFEF0F03C3DEF0003E33F807F53
:10077000FBC3DFFEF0F03C3DEF0007E73C00787B79
:10078000C3DE1EF0F03C3DEF0007FFBE00787BC3E8
:10079000DE1EF0F03C3DEF0007FFFE00787BC3DE7D
:1007A0001EF0F03C3DEF000FFFFE007FFBFFDFFE81
:1007B000F0F03FFDEFE00FFFFF007FFBFFDFFEF0FB
:1007C000F03FFDEFE00FF9FF003E79F9CF9EF0F02A
:1007D0001F3DE7E01FF1FF000000000000000000E7
:1007E0000000001F80FF007FFFFFFFFFFFFFFFFFF4
:1007F000FFE01C007F007FFFFFFFFEB46D888D18B7
:10080000E000001F007FFFFFFFFE95AD7DB577E0A4
:1008100000000F007FFFFFFFFEA5AD9D8D19E000DA
:100820000006007FFFFFFFFEB5ADEDB57EE00000E6
:1008300000000001800000000000000000000380B4
:1008400000000000000000000007C00000000000E1
:100850000000000007C00000000000000000000FC2
:10086000C00000000000000000001FE000000000C9
:1008700000000000001FE000000000000000000079
:100880003FE00000000000000000003FF00000001A
:100890000000000000007FF0000000000000001FCA
:1008A000F87FF0000000000000003FFE7FF0000035
:1008B00000000000003FFF7FF0000000000000008B
:1008C0001FFFFBE0000000000000000FFFF9FFC069
:1008D0000000000000000FFFF9FFF800000000001A
:1008E0000007FFF1FFFF00000000000003FC73FFA2
:1008F000FF80000000000001FE3FFFFF80000000BD
:10090000000000FF1E0FFF000000000000007FFE3F
:100910001FFC000000000000003FFFFFF800000087
:10092000000000000FDFFFE0000000000000001FDB
:1009300019FFC0000000000000003F3CFF00000065
:1009400000000000007E7CF80000000000000000B5
:100950007FFE7C0000000000000000FFFFFC0000A4
:10096000000000000000FFFFFE000000000000008B
:1009700000FFFFFE0000000000000001FFEFFE008E
:1009800000000000000001FFCFFE0000000000009A
:100990000003FF07FE0000000000000003FC07FE4C
:1009A0000000000000000003F003FE000000000053
:1009B0000000018000FE00000000000000000000B8
:1009C0007E000000000000000000003E000000006B
:1009D0000000000000000C00000000000007800084
:1009E000FC000003C0000000078001FC000003C001
:1009F000000000078001FC000003C0000000078029
:100A000001E00000001E000000078001E00000007F
:100A10001E007FE3F79FF9FDE7787BDFC0FFF7FF5C
:100A2000BFFDFDFF787BDFC0FFF7FFBFFDFDFF7857
:100A30007BDFC0F0F787BC3DE1FF787BDE00F0F79D
:100A400087BC3DE1F0787BDE0000F787803DE1E088
:100A5000787BDE007FF7879FFDE1E0787BDE00FF9B
:100A6000F787BFFDE1E0787BDE00F0F787BC3DE172
:100A7000E0787BDE00F0F787BC3DE1E0787BDE00CC
:100A8000F0F787BC3DE1E0787BDE00FFF7FFBFFDBC
:100A9000E1E07FFBDFC0FFF7FFBFFDE1E07FFBDFB1
:100AA000C07CF3F39F3DE1E03E7BCFC0000000003F
:100AB00000000000000000FFFFFFFFFFFFFFFFFF3F
:100AC000FFC0FFFFFFFFFD68DB111A31C0FFFFFF12
:100AD000FFFD2B5AFB6AEFC0FFFFFFFFFD4B5B3BA7
:100AE0001A33C0FFFFFFFFFD6B5BDB6AFDC056657D
:100AF000722025642E2530326400454449543A233F
:100B000025316400434841494E004C494E4B205426
:100B10004F3A20253164004359434C45533A25331D
:100B20006400565245460054554E45004C4F4144D2
:100B3000005341564500434F5059004E4557200041
:100B40005041545445524E232532640023205354BF
:100B50004550533A2532640050544E2046523A25AF
:100B600032640050544E20544F3A25326400414CB8
:100B70004C2050544E3F002531642E2530336420E4
:100B800056005054524E3A2325303164002200FF63
:100B900021000102040810204080010204081020F6
:100BA0000102040810200000000023002600290094
:100BB0000404040404040404020202020202030303
:100BC00003030303741DC12B11241FBECFEFD8E014
:100BD000DEBFCDBF11E0A0E0B1E0E4E3F1E602C08A
:100BE00005900D92A435B107D9F724E0A4E5B1E052
:100BF00001C01D92AB31B207E1F715E0C3EED5E0BD
:100C000004C02197FE010E94422CC23ED107C9F7C1
:100C10000E94531E0C948D300C940000089508958A
:100C20000895AF92BF92CF92DF92EF92FF920F930F
:100C30001F93CF93DF936C017B018B01040F151F72
:100C4000EB015E01AE18BF08C017D10759F06991DA
:100C5000D601ED91FC910190F081E02DC60109953E
:100C6000892B79F7C501DF91CF911F910F91FF90EB
:100C7000EF90DF90CF90BF90AF900895833081F0D8
:100C800028F4813099F08230A9F008958730A9F0D6
:100C90008830C9F08430B1F4809180008F7D03C02A
:100CA000809180008F7780938000089584B58F773E
:100CB00084BD089584B58F7DFBCF8091B0008F7780
:100CC0008093B00008958091B0008F7DF9CFCF93CD
:100CD000DF93282F30E0F901EC5EF94F8491F901A0
:100CE000EE56F44FD491F901E055F44FC491CC2362
:100CF000A1F081110E943E06EC2FF0E0EE0FFF1FE5
:100D0000EA55F44FA591B491EC91ED2381E090E088
:100D100009F480E0DF91CF91089580E090E0FACF70
:100D20001F93CF93DF93282F30E0F901EC5EF94F4A
:100D30008491F901EE56F44FD491F901E055F44F46
:100D4000C491CC23A9F0162F81110E943E06EC2FEE
:100D5000F0E0EE0FFF1FEC5BF94FA591B4918FB758
:100D6000F894EC91111108C0D095DE23DC938FBF6D
:100D7000DF91CF911F910895DE2BF8CFCF93DF93B2
:100D800090E0FC01EE56F44F24918055944FFC0105
:100D900084918823C9F090E0880F991FFC01E85DD9
:100DA000F94FA591B491FC01EC5BF94FC591D49139
:100DB00061110DC09FB7F8948C91209582238C937C
:100DC0008881282328839FBFDF91CF9108956230C7
:100DD00051F49FB7F8943C91822F809583238C9394
:100DE000E8812E2BEFCF8FB7F894EC912E2B2C931C
:100DF0008FBFEACF1F93CF93DF93182FEB0161E0F2
:100E00000E94BE06209739F460E0812FDF91CF91D8
:100E10001F910C949006CF3FD10511F461E0F5CFFE
:100E2000E12FF0E0EC5EF94FE491E33031F140F472
:100E3000E130B1F0E230E1F0C038D1057CF7E4CF29
:100E4000E73029F1E83059F1E430B1F780918000C2
:100E5000806280938000D0938B00C0938A0004C08E
:100E600084B5806884BDC7BDDF91CF911F9108957F
:100E700084B5806284BDC8BDF7CF80918000806852
:100E800080938000D0938900C0938800EDCF80913B
:100E9000B00080688093B000C093B300E5CF80912C
:100EA000B00080628093B000C093B400DDCF3FB744
:100EB000F89480910B0290910C02A0910D02B091D8
:100EC0000E0226B5A89B05C02F3F19F00196A11D63
:100ED000B11D3FBFBA2FA92F982F8827BC01CD0184
:100EE000620F711D811D911D42E0660F771F881FE3
:100EF000991F4A95D1F708958F929F92AF92BF9212
:100F0000CF92DF92EF92FF924B015C010E94570754
:100F10006B017C010E9457076C197D098E099F099E
:100F2000683E734081059105A8F321E0821A91087B
:100F3000A108B10888EEC80E83E0D81EE11CF11CA0
:100F400081149104A104B10429F7FF90EF90DF9080
:100F5000CF90BF90AF909F908F900895EF92FF92A7
:100F60000F931F93CF93DF93EC01EC80FD806E1500
:100F70007F050CF070C057FF04C0240F351F50E0F0
:100F800040E08E819F81FA01E20FF31F8E179F07C9
:100F90001CF49C01241B350B121613060CF05BC0CD
:100FA000922F842F8695869586958E9DD0018F9D54
:100FB000B00D11246A0F7B1FAF8DB8A1A60FB71F0C
:100FC000477049F188E0841B482F682F70E0FB01CF
:100FD000E45FF94FE491281708F063C0621B7109C0
:100FE0002FEF30E002C0359527956A95E2F7E223AE
:100FF0000130110539F0B0F10230110561F58C9125
:10100000E82702C08C91E82BEC93941720F12C81F7
:101010003D81A20FB31FE92FE41BE83078F00230C6
:10102000110521F58E2F9C9190959C932C813D81EB
:10103000A20FB31F88508830B0F7E770EE2359F045
:10104000F0E0EC5FF94FE49101301105F9F010F197
:101050000230110519F1DF91CF911F910F91FF908F
:10106000EF900895E0958C91E823CECF81E00115B3
:10107000110509F480E081959E2F8C932C813D8190
:10108000A20FB31F98509830C0F7D7CF8C91E82BA0
:10109000EC93E1CFE0958C91E823FACF8C91E8278F
:1010A000F7CF0130110509F4ADCFE0F202301105A0
:1010B00009F4A5CFAE0DBF1DAECF0F931F93CF93F5
:1010C000DF9377FF04C0260F371F70E060E0DC017C
:1010D0001496CD91DC91FB01E20FF31FCE17DF07D1
:1010E0001CF49E01261B370B121613064CF5FA0151
:1010F00057FD3796A3E0F595E795AA95E1F7EC9FA4
:10110000D001ED9FB00DFC9FB00D11246A0F7B1F25
:10111000DC015F96ED91FC91E60FF71F47705527B4
:1011200081E090E001C0880F4A95EAF7482F01302E
:10113000110559F0A8F02E0F3F1F02301105E1F004
:10114000DF91CF911F910F9108952E0F3F1FE2174E
:10115000F307B1F38191DF011197842B8C93F7CFC3
:1011600080952E0F3F1FE217F30751F39191DF0196
:10117000119798239C93F7CFE217F30709F3819116
:10118000DF01119784278C93F7CF0F931F93FA01F8
:10119000DC0156964C9156974230E9F04330A1F16C
:1011A000413061F514964D915C91DA01AE1BBF0B95
:1011B000FD01E21BF30B77FD0BC0DC0116964D9190
:1011C0005C916417750724F4AB01BF010E945D08B0
:1011D0001F910F91089514964D915C91DA01A61B11
:1011E000B70BBD0161507109DC0116964D915C9100
:1011F000DA01AE1BBF0BFD01E21BF30B77FDE8CF5D
:10120000AF010E94AE07E4CF16964D915C91DA01D2
:10121000A61BB70BBD0161507109CDCF0F931F9372
:10122000FA01DC0156964C9156974230A9F04330B2
:1012300091F1413019F514964D915C91DA01AE1B94
:10124000BF0BFD013197F7FD04C0AB01BF010E9448
:10125000AE071F910F91089514964D915C91DA019C
:10126000A61BB70BBD01DC0116964D915C91DA010E
:10127000AE1BBF0BFD013197621B730BF7FDE9CF6E
:10128000DC0116964D915C91E417F50714F7AF0158
:101290000E945D08DECF16964D915C91DA01A61B87
:1012A000B70BBD01621B730BCECFFC0177FD64C091
:1012B00080859185681779070CF05EC057FD5CC08A
:1012C00082859385481759070CF056C0868982306D
:1012D000B1F0833029F1813041F484819581841B00
:1012E000950BAB01BC01615071092130310509F149
:1012F00008F443C02230310509F463C008958481A5
:101300009581DC01A61BB70BBD0161507109868177
:101310009781DC01A41BB50BAD0141505109E5CF0C
:1013200086819781861B970BBA01AC014150510908
:10133000DCCFCA0157FD0796A3E095958795AA953E
:10134000E1F7A481B5818A9F90018B9F300D9A9F10
:10135000300D1124620F731F078CF0A1E02DE60FF2
:10136000F71F4770552721E030E001C0220F4A9552
:10137000EAF78081822B80830895CA0157FD079682
:1013800033E0959587953A95E1F7A481B5818A9FD9
:1013900090018B9F300D9A9F300D1124620F731FA7
:1013A000078CF0A1E02DE60FF71F4770552781E06D
:1013B00090E001C0880F4A95EAF7809590818923D3
:1013C000DACFCA0157FD079623E0959587952A95B0
:1013D000E1F7A481B5818A9F90018B9F300D9A9F80
:1013E000300D1124620F731F078CF0A1E02DE60F62
:1013F000F71F4770552721E030E001C0220F4A95C2
:10140000EAF780818227B7CF08958EBD00000DB422
:1014100007FEFDCF8EB508958CBD9DBD089508953E
:10142000FC016370668B84819581268137816130F0
:1014300039F0633029F091878087338722870895B8
:10144000318720879387828708952F923F924F920A
:101450005F926F927F928F929F92AF92BF92CF9244
:10146000DF92EF92FF920F931F93CF93DF93CDB74D
:10147000DEB76A970FB6F894DEBF0FBECDBF9A8F66
:10148000898F7A8369834A01D22E18870F833701A7
:10149000BC2CDC0159962D913C915A9721153105B0
:1014A00009F015C118968D919C91199768177907C5
:1014B0000CF0D7C11A968D919C91481759070CF0E2
:1014C000D0C14C2C512CB6E0CB9E600D711D112467
:1014D0007C876B87161617060CF0C3C1EA2DF0E067
:1014E000FA87E98793E0EE0FFF1F9A95E1F7F88BF3
:1014F000EF87CF01840F951F181619060CF0B1C1A4
:10150000A98DBA8D58968C91811104C0BFEABD1582
:1015100008F4D394A98DBA8DED91FC9111970284B2
:10152000F385E02DCD010995B5E0DB9EC0011124C6
:10153000E981FA81FC83EB83312C212C9C012C5F07
:101540003E4F388F2F8B4A2D50E05E8B4D8BEF89AD
:10155000F88DE20DF31D44919E828D82D12CC12C19
:1015600069817A81620D731D7A8B698B842F90E07B
:101570009C8B8B8BE98DFA8DA081B18140FF82C05D
:10158000F1E0BF126FC0AF126DC01C96ED91FC91DF
:101590002F813885A4014C0D5D1D69897A89898D5B
:1015A0009A8D0995EB89FC89F595E7954E2F5FEFAC
:1015B000C51AD50A6D817E818D899E89680F791F34
:1015C0007E836D8398E0C916D10481F6AFEF2A1AA5
:1015D0003A0AEB81FC81E40DF51DFC83EB83F5E019
:1015E0002F16310409F0B3CF2F8138852615370522
:1015F000B9F0A98DBA8DED91FC91B1E0BB1257C045
:10160000AB1255C069817A816B5F7F4F0088F18989
:10161000E02D830128E030E0A401898D9A8D0995A1
:10162000A98DBA8DED91FC9111970688F789E02D6F
:10163000CD016A960FB6F894DEBF0FBECDBFDF9125
:10164000CF911F910F91FF90EF90DF90CF90BF90BF
:10165000AF909F908F907F906F905F904F903F9052
:101660002F9009941E96ED91FC91EF80F8840985E6
:101670001A8592014D815E816B817C81898D9A8D65
:10168000099590CF2F8138852615370509F48ACF23
:1016900031E0B31207C0A31205C01C96ED91FC9176
:1016A000930178CF1E96ED91FC917301E0CF6B858D
:1016B0007C85641975090684F785E02D73010F8513
:1016C00018899201A401898D9A8D0995A9CFF901F4
:1016D00034969491329745915491D91AB7E0DB9E94
:1016E000400D511D1124F901259134913C8B2B8B18
:1016F000FA0125903490FA01329674903196349123
:10170000398B329664903196449041E04C1518F034
:101710004A1508F07FC0662D062C000C770B7C83E1
:101720006B83842D042C000C990B9E838D83A98DD3
:10173000BA8DED91FC9111970284F385E02DCD01D6
:101740000995512CD12CC12CEA2DF0E0FA87E987BC
:101750002B2D30E03C872B87A401440D511D47FC05
:101760005A95588F4F8B69817A81660D711D67FC80
:101770007A957E876D877989C71608F051CF2C2D11
:1017800030E04D815E81420F531FA985BA854A9F83
:10179000C0014B9F900D5A9F900D1124FC01E80D44
:1017A000F91DF88BEF87852D612C4F89588D420FDD
:1017B000531F5E8B4D8B671408F050C04424439434
:1017C000480E877041F4C1010196EB89FC89E20D56
:1017D000F31DD4901C01D7FE19C0A98DBA8DED91CF
:1017E000FC91662D70E0B1E0BB1219C0AB1217C0BE
:1017F0002D853E85620F731F0484F585E02D2F81B2
:1018000038854D895E89898D9A8D0995DD0C6394A3
:10181000842DD1CF1E821D821C821B8288CF4B81DA
:101820005C81640F751FAB85BC856A9FC0016B9F8F
:10183000900D7A9F900D112469817A81680F791F2C
:101840000684F785E02DEF80F88409851A859D01CF
:101850004F855889898D9A8D0995D8CF570CC39497
:101860008ACF6A960FB6F894DEBF0FBECDBFDF9168
:10187000CF911F910F91FF90EF90DF90CF90BF908D
:10188000AF909F908F907F906F905F904F903F9020
:101890002F9008958F929F92AF92CF92EF92FF92E6
:1018A0000F931F93CF93DF93EC01262F898D9A8D91
:1018B000009709F051C06A30D1F41D861C868D89CD
:1018C00048E0849F900111248E859F85820F931F8D
:1018D0009F878E8781E090E0DF91CF911F910F91DC
:1018E000FF90EF90CF90AF909F908F9008956D30C4
:1018F00089F3CC88AD888F898823C1F08C859D853C
:1019000036E0C39E800D911D1124488559854817E6
:10191000590764F44E855F851D861C8638E0A39EBA
:10192000C0011124840F951F9F878E87EA88FB884A
:10193000088919894E855F856C857D85CE010E9459
:10194000250A2C898C859D8546E0249F800D911D5C
:1019500011249D878C87BECF6A3069F41D861C8652
:10196000FC013896E4912D898E859F85E29F800D3C
:10197000911D1124ADCF6D3009F4ACCFFC0134962C
:101980003491631708F4A6CF3296E491E61708F471
:10199000A1CFFC01329685909490462F431B342FA3
:1019A00047E0349F800C911C1124F401329634914D
:1019B0003196E4913323A9F1EE2399F1CC88F40117
:1019C0003596E491AD884F89442301F10E2E000C29
:1019D000FF0BE30FF11DCE9EA001CF9E500D1124F1
:1019E0006C857D85460F571F688579856417750757
:1019F0006CF44E855F851D861C86FC013896E4914B
:101A0000AE9E400D511D11245F874E87EA88FB88EA
:101A1000088919894E855F856C857D85CE010E9478
:101A2000250AF4013496E4912C898C859D85E29FEA
:101A3000800D911D11248DCF6F927F928F929F9276
:101A4000AF92BF92CF92DF92EF92FF920F931F93CC
:101A5000CF93DF93EC016B015A0139014801E88112
:101A6000F9810284F385E02D0995E881F9810288E6
:101A7000F389E02D87019301A501B601CE010995F7
:101A8000A501480D591D41505109E881F98102888D
:101A9000F389E02D9301B601CE010995E881F98122
:101AA0000088F189E02D9401A501B601CE010995C8
:101AB000C60CD71CB60161507109E881F981008814
:101AC000F189E02D9401A501CE010995E881F98104
:101AD0000688F789E02DCE01DF91CF911F910F91FC
:101AE000FF90EF90DF90CF90BF90AF909F908F903E
:101AF0007F906F9009946F927F928F929F92AF9296
:101B0000BF92CF92DF92EF92FF920F931F93CF93EA
:101B1000DF935C01EB016A01490138018701DC01B7
:101B2000ED91FC916217730719F5641675062CF098
:101B3000962D872D3A01C92ED82E960126193709E0
:101B40002F5F3F4F048CF58DE02DA301BE01C50131
:101B50000995DF91CF911F910F91FF90EF90DF904A
:101B6000CF90BF90AF909F908F907F906F9008958F
:101B70004615570591F42617370724F0892D4B0198
:101B8000C22FD82F9E01281939092F5F3F4F068C8D
:101B9000F78DE02DA601B401DACF0284F385E02DA4
:101BA0000995D501ED91FC910488F589E02D83011B
:101BB0009401A601BE01C5010995D501ED91FC91E5
:101BC0000688F789E02DC501DF91CF911F910F9114
:101BD000FF90EF90DF90CF90BF90AF909F908F904D
:101BE0007F906F900994EF92FF920F931F93DC0107
:101BF0001A960D911C911B9718962D913C9119974F
:101C0000ED91FC9100A0F1A1E02D7B0150E040E0BE
:101C100070E060E009951F910F91FF90EF9008959B
:101C20004F925F926F927F928F929F92AF92BF92EC
:101C3000CF92DF92EF92FF920F931F93CF93DF9398
:101C40006C012B015A0139014801DC01ED91FC9135
:101C50000284F385E02D0995E201640C751CD60120
:101C6000ED91FC91C615D7055CF40088F189E02D53
:101C700087019401A501BE01C60109952196EFCF08
:101C80000688F789E02DC601DF91CF911F910F9152
:101C9000FF90EF90DF90CF90BF90AF909F908F908C
:101CA0007F906F905F904F9009948F929F92AF9228
:101CB000BF92CF92DF92EF92FF920F931F93CF9339
:101CC000DF93EC015B014A016901E881F98102843B
:101CD000F385E02D099595012C0D3D1D215031090D
:101CE000E881F9810488F589E02D78018401A40157
:101CF000B501CE010995E881F9810688F789E02DC3
:101D0000CE01DF91CF911F910F91FF90EF90DF9067
:101D1000CF90BF90AF909F908F9009948F929F9299
:101D2000AF92BF92CF92DF92EF92FF920F931F93E9
:101D3000CF93DF93EC015B014A0169017801E881EF
:101D4000F9810284F385E02D0995C80CD91C860120
:101D500001501109E881F9810488F589E02D950188
:101D6000A401B501CE010995E881F9810688F789BA
:101D7000E02DCE01DF91CF911F910F91FF90EF9059
:101D8000DF90CF90BF90AF909F908F900994EF928B
:101D9000FF920F931F93DC01ED91FC9100A0F1A144
:101DA000E02D09951F910F91FF90EF9008950F93EB
:101DB0001F93DC01ED91FC91068CF78DE02D0995C8
:101DC0001F910F9108950F931F93DC01ED91FC91EA
:101DD000048CF58DE02D09951F910F910895DC017C
:101DE000ED91FC910084F185E02D09942F923F92B2
:101DF0004F925F926F927F928F929F92AF92BF921B
:101E0000CF92DF92EF92FF920F931F93CF93DF93C6
:101E10007C016B01EA0181E090E05C01A41AB50A43
:101E200066247724641A750A660C771C10E000E0BB
:101E300088248394912C822F8470582E822F827054
:101E4000482E822F8870382E2170222E0C171D07E5
:101E50000CF079C0B7FC06C0219782E0680E711CB7
:101E6000A60CB71C0F5F1F4F82E0880E911CA80CB8
:101E7000B91C5520C1F021E030E0AE014C0D5D1DD4
:101E8000B701600F711F87ED93E00E94EF0E21E014
:101E900030E0A601400F511FBE016E0D7F1D87ED82
:101EA00093E00E94EF0E4420C1F021E030E0A60153
:101EB0004C1B5D0BB701600F711F87ED93E00E9413
:101EC000EF0E21E030E0A601401B510BBE016E0D6C
:101ED0007F1D87ED93E00E94EF0E3320C1F021E0DB
:101EE00030E0A601400F511FB7016C1B7D0B87ED41
:101EF00093E00E94EF0E21E030E0AE014C0D5D1D3D
:101F0000B701601B710B87ED93E00E94EF0E22205A
:101F100009F49CCF21E030E0A601401B510BB70132
:101F20006C1B7D0B87ED93E00E94EF0E21E030E00B
:101F3000A6014C1B5D0BB701601B710B87ED93E095
:101F40000E94EF0E83CFDF91CF911F910F91FF90F1
:101F5000EF90DF90CF90BF90AF909F908F907F9049
:101F60006F905F904F903F902F9008954F925F92A7
:101F70006F927F928F929F92AF92BF92CF92DF9299
:101F8000EF92FF920F931F93CF93DF93EC017B01AE
:101F90003A0169014A0186E0881A91085E0183E0EE
:101FA000A80EB11C01E010E09401AB01B50187ED72
:101FB00093E00E94D70E26014E0C5F1CA2014150F7
:101FC00051099401B50187ED93E00E94D70E86E098
:101FD000C81AD10883E0E80EF11C9601A701BE01E2
:101FE00087ED93E00E94E30EC60DD71DBE01615040
:101FF00071099601A70187ED93E00E94E30E21E0AD
:1020000043E050E0B701C5010E94F60E249722E09C
:1020100043E050E0B701CE010E94F60E84E0481A7A
:10202000510824E043E050E0B201CE010E94F60ED8
:1020300028E043E050E0B201C501DF91CF911F914C
:102040000F91FF90EF90DF90CF90BF90AF909F9057
:102050008F907F906F905F904F900C94F60E3F9210
:102060004F925F926F927F928F929F92AF92BF92A8
:10207000CF92DF92EF92FF920F931F93CF93DF9354
:102080005C017B014A016901390187E0680E711C1E
:1020900093E0759467949A95E1F72B01400E511ED9
:1020A00010E000E0312CD0E0C0E0CE01877099272D
:1020B000330C892B59F4FE0183E0F595E7958A9559
:1020C000E1F7E00FF11FE80DF91D349037FE0AC06B
:1020D00021E030E0A701B5016C0F7D1F87ED93E093
:1020E0000E94EF0E2196CC16DD06F9F68FEFE81A66
:1020F000F80A060D171DE414F504A9F6DF91CF9137
:102100001F910F91FF90EF90DF90CF90BF90AF9015
:102110009F908F907F906F905F904F903F90089529
:102120002F923F924F925F926F927F928F929F92E7
:10213000AF92BF92CF92DF92EF92FF920F931F93D5
:10214000CF93DF9300D000D000D0CDB7DEB73C01F5
:102150006A013E832D83FC82EB825801A41AB50AE2
:10216000B7FE03C0B194A194B1088D809E80861AF9
:10217000970A97FE03C09194819491088A149B0456
:102180005CF0902F812F0D811E819D838E839C2D6D
:102190008D2D6B01692F782F0C151D055CF09D812D
:1021A0008E817E836D83692F782F902F812F8601FA
:1021B000C92ED82E1601201A310A2B012D813E81FD
:1021C000421A530A57FE03C05194419451087101B9
:1021D00037FE03C03FEFE31AF30AF594E7948D81CD
:1021E0009E81861797075CF5A1E0B0E0BA83A983CA
:1021F000C016D1064CF1D301ED91FC910484F58514
:10220000E02D2B813C81A8016D817E818A149B0485
:102210001CF04D815E81B801C3010995E418F508F1
:10222000F7FE0AC02D813E8189819A81280F391FCE
:102230003E832D83E20CF31C0F5F1F4FD9CF2FEF8E
:102240003FEF3A832983D4CF26960FB6F894DEBFAA
:102250000FBECDBFDF91CF911F910F91FF90EF90F7
:10226000DF90CF90BF90AF909F908F907F906F90B6
:102270005F904F903F902F90089508952091C00156
:10228000260F3327331F21323105ECF42091E4016E
:10229000FC0190E080E0243069F082E00895A09194
:1022A000C0012191AC0140565E4FA40FB52FB11D66
:1022B0002C930196861798F38091C001680F609364
:1022C000C00180E0089581E008951092E40181E06A
:1022D0008093E6011092E50161E082E10E949006A0
:1022E00061E083E10E949006E9EBF0E080818E7F5F
:1022F000808380818D7F808388E48093B80085E42B
:102300008093BC000895CF93DF9391E090939F0159
:102310008823B9F0C091B800D091BA008091BC0078
:102320008A7B8093BC0060E082E10E94900660E0BE
:1023300083E10E9490060E946511D093BA00C09379
:10234000B800DF91CF910895E091150280911402B9
:10235000E81730F4F0E0E658FE4F808190E00895F1
:102360008FEF9FEF089590911502809114022FEF47
:102370003FEF981748F4E92FF0E0E658FE4F208130
:1023800030E09F5F90931502C90108958091140277
:1023900090911502891B990B0895CF92DF92EF92CD
:1023A000FF920F931F93CF93DF937C01CB018A01A0
:1023B0002091BA03222389F0EB016B01C40ED51ED4
:1023C000CC15DD0569F06991D701ED91FC91019083
:1023D000F081E02DC7010995F3CF642F0E943E11D3
:1023E000C801DF91CF911F910F91FF90EF90DF9087
:1023F000CF900895CF93DF931F92CDB7DEB7698357
:102400002091BA032223F9F02091B703203258F02B
:1024100021E030E0FC013383228390E080E00F90E4
:10242000DF91CF9108958091B803E82FF0E0E65A4C
:10243000FE4F998190838F5F8093B8038093B70399
:1024400081E090E0ECCF61E0CE0101960E943E1168
:10245000F7CFCF92DF92EF92FF920F931F93CF931C
:10246000DF93D091B70381E0D13208F09CC0C091D6
:10247000B9030E9457076B017C018091E40181112F
:102480006CC082E08093E40181E08093E6018FEFED
:102490008093E30110920802D0930702AAE5B1E00D
:1024A000E7EEF1E080E0D8138DC010920902809130
:1024B0000902CC0FC82BC09309028091E50181303D
:1024C00009F084C01092E5010E9457076B017C015E
:1024D000809109028093BB0080919B0190919C01A7
:1024E000A0919D01B0919E01892B8A2B8B2BA1F08D
:1024F0000E94570700919B0110919C0120919D0122
:1025000030919E016C197D098E099F0906171707E6
:102510002807390708F442C08091BC0083FDD8CF5A
:1025200085EC8093BC000E9457076B017C01809171
:10253000E401823009F44CC08091E3018F3F09F43B
:1025400069C08091E301803209F466C08091E301A3
:10255000803309F463C084E026C080919B01909190
:102560009C01A0919D01B0919E01892B8A2B8B2B00
:1025700009F483CF0E94570700919B0110919C01A1
:1025800020919D0130919E016C197D098E099F0952
:10259000061717072807390708F06FCF80919A01AF
:1025A0000E94831185E01092B8031092B703109235
:1025B000BA03DF91CF911F910F91FF90EF90DF90C1
:1025C000CF9008959D9191938F5F6DCF85EEA9CFA8
:1025D00080919B0190919C01A0919D01B0919E01E1
:1025E000892B8A2B8B2B09F4A2CF0E9457070091CD
:1025F0009B0110919C0120919D0130919E016C19CD
:102600007D098E099F09061717072807390708F063
:102610008ECFC4CF80E0C7CF82E0C5CF83E0C3CFE9
:10262000CF93C82F81E08093BA0380E68093B903EB
:102630001092B8031092B703692F70E06F7077277C
:102640008BEB93E00E94FA116C2F8BEB93E00E94CE
:10265000FA118BEB93E0CF910C942912EF92FF9239
:102660000F931F93CF93DF937C01C62F8091F403C8
:102670009091F503009709F459C02091F80331E0D7
:102680003093BA032093B9031092B8031092B703A2
:10269000DC01ED91FC910190F081E02D60E0099565
:1026A0008701EE24E394F12CD1E0C1508091F40332
:1026B0009091F503CF3F91F1B0E2EB16F104D8F021
:1026C0000E9429128091F4039091F5032091F80360
:1026D000D093BA032093B9031092B8031092B703B2
:1026E000DC01ED91FC910190F081E02D60E0099515
:1026F000EE24E394F12C8091F4039091F503F8011A
:102700006491DC01ED91FC910190F081E02D09953F
:10271000BFEFEB1AFB0A0F5F1F4FC7CFDF91CF91BF
:102720001F910F91FF90EF900C942912E0910404F7
:10273000F0910504908180910A048095892380831B
:102740008701C15008F438C0F80184912091F20348
:102750003091F303232B29F00E94050A0F5F1F4FCE
:10276000F0CF28E030E040E8E0910004F09101046F
:1027700090910804582F5423D9F05081952B9083C1
:10278000E0910204F0910304908150910904952B8B
:102790009083E0910204F091030450819091090428
:1027A000909595239083469521503109E9F6D6CF2F
:1027B000508190959523E3CFDF91CF911F910F9199
:1027C000FF90EF9008951F93CF93DF93EC018D8DD1
:1027D0009E8D009721F1162F29A131E03093BA0385
:1027E0002093B9031092B8031092B703DC01ED9166
:1027F000FC910190F081E02D60E009958D8D9E8D1A
:10280000DC01ED91FC910190F081E02D612F0995A3
:102810008D8D9E8DDF91CF911F910C942912ADA5C6
:10282000BEA59C918BA9809589238C938B8D9C8DC3
:10283000892B31F0862FDF91CF911F910C94050ADF
:1028400028E030E080E8A9A5BAA599A9462F482339
:10285000C1F04C91942B9C93ABA5BCA59C914AA92B
:10286000942B9C93ABA5BCA54C919AA990959423CD
:102870009C9386952150310931F7DF91CF911F91BB
:1028800008954C9190959423E6CFDF92EF92FF92BA
:102890000F931F93CF93DF938091F4039091F503EF
:1028A000892B09F498C020910C0430910D044091BB
:1028B0000E0450910F0460E074E284EF90E00E94F7
:1028C000012C2051310941095109569547953795F9
:1028D00027952093B80065E08DE89BE00E942E13B9
:1028E0006091DB03615087ED93E00E94E313209138
:1028F000DD033091DE03C901079697FD079633E0AB
:10290000959587953A95E1F72091DB033091DC03AB
:10291000829F8001839F100D929F100D1124C09102
:10292000F603D091F7038091F4039091F5030C0F17
:102930001D1F009709F48FC02091F80331E03093F8
:10294000BA032093B9031092B8031092B703DC01C5
:10295000ED91FC910190F081E02D60E40995EE2469
:10296000E394F12CDD24D3948091F4039091F5034A
:102970000C171D0709F446C0B0E2EB16F104D8F0BD
:102980000E9429128091F4039091F5032091F8039D
:10299000D092BA032093B9031092B8031092B703F0
:1029A000DC01ED91FC910190F081E02D60E409954E
:1029B000EE24E394F12C8091F4039091F503699156
:1029C000DC01ED91FC910190F081E02D0995BFEFC4
:1029D000EB1AFB0AC9CF8091F2039091F303892B84
:1029E00031F080911504909116040E940C0AE09138
:1029F0000604F0910704908180910B04809589234F
:102A0000808369CF0E9429128091F4039091F5038D
:102A1000892B09F461C02091100430911104409178
:102A200012045091130460E074E284EF90E00E947D
:102A3000012C205131094109510956954795379587
:102A400027952093B800DF91CF911F910F91FF90B0
:102A5000EF90DF900895E0910404F09105048081E7
:102A600090910A04892B80830C171D0769F28991C4
:102A70002091F2033091F303232B19F00E94050AF1
:102A8000F3CF28E030E040E8E0910004F091010449
:102A900090910804582F5423D9F05081952B90839E
:102AA000E0910204F0910304908150910904952B68
:102AB0009083E0910204F091030450819091090405
:102AC000909595239083469521503109E9F6CCCF16
:102AD000508190959523E3CFE0910604F09107048F
:102AE000808190910B04892B8083ADCF1F93CF936E
:102AF000DF93EC01162F8D8D9E8D892BB1F12DA9C1
:102B00003EA94FA958AD60E074E284EF90E00E94C6
:102B1000012C2051310941095109569547953795A6
:102B200027952093B80066EA111167EACE010E944A
:102B3000E3138D8D9E8D892B41F129AD3AAD4BADBF
:102B40005CAD60E074E284EF90E00E94012C2051C3
:102B50003109410951095695479537952795209395
:102B6000B800DF91CF911F9108958B8D9C8D892B9B
:102B700021F08EAD9FAD0E940C0AEFA5F8A99081BF
:102B80008CA9809589238083CECFEFA5F8A9808179
:102B90009CA9892B8083E5CF90E080E008950F9376
:102BA0001F93CF93DF93880F991F8C010C5A1E4FF0
:102BB000F801C081D181CC0FDD1F862F0E946706EE
:102BC0009E013E6F282B392BF8013183208381E051
:102BD00021153F4F09F080E0DF91CF911F910F91B8
:102BE0000895DC01ED91FD918081ED91FD91908141
:102BF000ED91FD916C9163708E2309F064609F23C9
:102C000009F06860EEE0F6E1E60FF11D6595659567
:102C10006D936D917D918D919D91099423C01AC002
:102C200012C016C010C01EC009C014C013C006C018
:102C300019C009C00DC007C00DC014C0625070405B
:102C4000804090400BC0615070408040904006C072
:102C50006E5F01C06F5F7F4F8F4F9F4F9E938E932C
:102C60007E936E930895FC0101900020E9F731975F
:102C7000AF01481B590BBC0187ED93E00C94110682
:102C8000CF93DF93EC012BE030E04FE250E062E0C5
:102C900070E080E590E00E94B60FE7EDF3E083E599
:102CA00090E09587848784E090E097878687CE01BF
:102CB000DF91CF910C9433162091DD033091DE0328
:102CC000C901079697FD079623E0959587952A9564
:102CD000E1F72091DB033091DC03829FA001839F09
:102CE000500D929F500D112470E060E08091F6032A
:102CF0009091F7030C94A72DCF92DF92EF92FF9261
:102D00000F931F93CF93DF9300D01F92CDB7DEB701
:102D1000F82EE92ECB016CE070E00E94ED2BD62E50
:102D2000C72EBC01660F771F680F791F60527F4F57
:102D30008E010F5F1F4FC8010E94D02BCF92DF92F0
:102D40001F930F938AE491E09F938F93EF92FF92EA
:102D50000E94B52D0FB6F894DEBF0FBECDBF0F9009
:102D60000F900F90DF91CF911F910F91FF90EF90F7
:102D7000DF90CF900895CF92DF92EF92FF920F9362
:102D80001F93CF93DF93EC017B01623071050CF44C
:102D900056C023E130E04FE250E06EE070E080E5A5
:102DA00090E00E94B60F68ED70E080E492E00E942F
:102DB000D02BDF93CF9300E412E01F930F93C0E377
:102DC000D2E0DF93CF930E94B52D83E5C82ED12C9E
:102DD000D092E403C092E30380E190E09093E60395
:102DE0008093E503CE010E94331660ED70E0C801C8
:102DF0000E94D02BFF92EF921F930F93DF93CF93FC
:102E00000E94B52DD092E403C092E30388E190E0E4
:102E10009093E6038093E5038DB79EB70C960FB6AB
:102E2000F8949EBF0FBE8DBFCE01DF91CF911F9151
:102E30000F91FF90EF90DF90CF900C943316F12C10
:102E4000E12C03E110E02FE230E04EE050E060E5DD
:102E500070E087ED93E00E94100EDF91CF911F91FB
:102E60000F91FF90EF90DF90CF900895CF930E9445
:102E70005C16E7EDF3E0C1E0C48BC58B2EE330E0D8
:102E80004CE450E062E070E082E090E00E94B60F17
:102E900068EC70E080E492E00E94D02B80E492E045
:102EA0000E944016C093B203CF910895CF930E9421
:102EB0005C16E7EDF3E0C1E0C48BC58B81E090E0E8
:102EC000918B808B138A128A2EE330E04CE450E021
:102ED00062E070E082E090E00E94B60F67E770E089
:102EE00080E492E00E94D02B8091200290912102F8
:102EF00001969F938F9380E492E09F938F9380E35A
:102F000092E09F938F930E94B52D80E392E00E9400
:102F10004016C093B2030F900F900F900F900F9038
:102F20000F90CF910895CF92DF92EF92FF920F937F
:102F30001F93CF93DF93CDB7DEB764970FB6F894A6
:102F4000DEBF0FBECDBF8C01809150019091510129
:102F5000A0915201B0915301898B9A8BAB8BBC8BA2
:102F600068E670E0CE0101966C010E94D02BE091E2
:102F70002202F091230224E0EE0FFF1F2A95E1F7D1
:102F8000E00FF11FEE0FFF1FEA5AFD4F60817181C4
:102F90006F737727CE0141967C016115710521F091
:102FA000615071090E947C16E0912202F091230287
:102FB00084E0EE0FFF1F8A95E1F7E00FF11FEE0F9F
:102FC000FF1FEA5AFD4F808191813DE286FD33E586
:102FD0002DE287FD21E490FD3EC08DE21F923F93DC
:102FE0001F922F931F928F93FF92EF920F5F1F4FAD
:102FF0001F930F93DF92CF9280E392E09F938F9382
:103000000E94B52D83E090E09093E4038093E30366
:1030100089E190E09093E6038093E50382E080935A
:10302000EB038093EC0380E392E00E9433160FB62B
:10303000F894DEBF0FBECDBF64960FB6F894DEBF26
:103040000FBECDBFDF91CF911F910F91FF90EF90F9
:10305000DF90CF90089584E5C1CFCF930E945C1696
:10306000E7EDF3E0C1E0C48BC58B81E090E0918B8C
:10307000808B138A128A24E130E04FE750E066E14A
:1030800070E090E080E00E94B60F6AEF7AE080E4A2
:1030900092E00E94D02B809123028F938091220294
:1030A0008F9380E492E09F938F9380E392E09F93CD
:1030B0008F930E94B52D80E392E00E94401680918C
:1030C0002002909121020E949317C093B2030F90A7
:1030D0000F900F900F900F900F90CF910895AF9297
:1030E000BF92CF92DF92EF92FF920F931F93CF93F5
:1030F000DF93CDB7DEB764970FB6F894DEBF0FBE8F
:10310000CDBF5C018091500190915101A09152017D
:10311000B0915301898B9A8BAB8BBC8B68E670E0C6
:10312000CE0101966C010E94D02B609154027091E7
:103130005502C50103972091B4033091B503820F66
:10314000931F860F971F0E94ED2B8C01E091AE0319
:10315000F091AF0334E0EE0FFF1F3A95E1F7E80F6F
:10316000F91FEE0FFF1FEA5AFD4F608171816F73E7
:103170007727CE0141967C016115710521F06150E0
:1031800071090E947C160115110551F41092E80393
:103190001092E70381E090E09093EA038093E903C3
:1031A00085E090E09093E4038093E30383E0AA0C2E
:1031B000BB1C8A95E1F795E0A90EB11CB092E6031D
:1031C000A092E503E091AE03F091AF0394E0EE0F1F
:1031D000FF1F9A95E1F7E00FF11FEE0FFF1FEA5A6C
:1031E000FD4F808191813DE286FD33E52DE287FD33
:1031F00021E490FD39C08DE21F923F931F922F93DF
:103200001F928F93FF92EF920F5F1F4F1F930F93A9
:10321000DF92CF9280E392E09F938F930E94B52D2F
:1032200080E392E00E94331681E090E09093E803FF
:103230008093E7031092EA031092E9030FB6F89423
:10324000DEBF0FBECDBF64960FB6F894DEBF0FBED3
:10325000CDBFDF91CF911F910F91FF90EF90DF9045
:10326000CF90BF90AF90089584E5C6CFCF930E94D2
:103270005C16E7EDF3E0C1E0C48BC58B81E090E024
:10328000918B808B138A128A2EE330E04CE450E05D
:1032900062E070E082E090E00E94B60F62E87BE0BE
:1032A00080E492E00E94D02B8091AF038F938091B5
:1032B000AE038F9380E492E09F938F9380E392E03C
:1032C0009F938F930E94B52D80E392E00E94401659
:1032D000609150027091510280915202909153027C
:1032E00001960E94BB16C093B2030F900F900F90EF
:1032F0000F900F900F90CF9108950E94A22D85ED11
:103300008093BC0080919B0190919C01A0919D01B4
:10331000B0919E010796A11DB11D23E0B695A7951A
:10332000979587952A95D1F72091BC0024FD03C07D
:103330001092E401089540919B0150919C0160918D
:103340009D0170919E01452B462B472B69F30097F9
:10335000A105B10541F025E32A95F1F70000019799
:10336000A109B109E1CF80919A010C948311FF92D8
:103370000F931F93CF93DF9306E512E0D0E0C0E0F8
:10338000F801F1908F01CE010E94D72BF81621F0A1
:103390006F2DCE010E94DF2B2196C835F1E0DF07AB
:1033A00079F7DF91CF911F910F91FF900895EF92E0
:1033B000FF920F931F93CF93DF9306E512E07801FE
:1033C000D0E0C0E0CE010E94D72BF70181937F01AE
:1033D0002196C835F1E0DF07A9F78091AC03909101
:1033E000AD038334904321F1E6E9F3E08FE081936C
:1033F00030E020E0D901AA0FBB1FA00FB11F1D9222
:103400001C922F5F3F4F20313105A1F71186805F5D
:10341000005E1F4F8F3A59F788E893E19093AB0312
:103420008093AA0383E490E39093AD038093AC036D
:10343000DF91CF911F910F91FF90EF900895CF9260
:10344000DF92EF92FF920F931F93CF93DF93CDB74D
:10345000DEB766970FB6F894DEBF0FBECDBF8C0106
:1034600020912E0230912F0221153105B9F0809163
:103470001A0290911B02820F931F8530910514F060
:1034800084E090E097FF02C090E080E090931B0200
:1034900080931A0210922F0210922E02101611061B
:1034A0007CF58AE090E09093E4038093E303980135
:1034B0002F5F3F4F4AE0429FC001439F900D112470
:1034C00005969093E6038093E50381E08093EB03F8
:1034D0008093EC036DEB70E0CE0101960E94D02B3F
:1034E0000230110509F4C8C0FCF401151105B9F149
:1034F0000130110509F47DC0053011050CF561C0DE
:1035000086E190E09093E4038093E30385E090E00C
:103510009093E6038093E50382E08093EB0380932E
:10352000EC0369EB70E0D8CF0430110509F403C156
:103530000CF4D2C005301105F9F681E08093B20396
:1035400066960FB6F894DEBF0FBECDBFDF91CF9168
:103550001F910F91FF90EF90DF90CF900895809191
:10356000200290912102A091AE03B091AF0324E01C
:10357000AA0FBB1F2A95E1F7A80FB91FAA0FBB1FFF
:10358000AA5ABD4F2D913C912F733327232B51F114
:10359000E0912202F0912302A4E0EE0FFF1FAA9512
:1035A000E1F7E80FF91FEE0FFF1FEA5AFD4F6081A8
:1035B00071816F7377276150710980E392E00E94F7
:1035C0007C1680911A0290911B028017910709F0D6
:1035D000CFC0809128028111CBC0CE0101960E94FC
:1035E0003316AECF60E571E080E392E00E94AE2D2D
:1035F000E8CF6FEA70E080E492E00E94D02B7E0179
:103600008DE0E80EF11C6BEA70E0C7010E94D02B40
:103610006E0182E1C80ED11C67EA70E0C6010E940B
:10362000D02BE0912202F091230264E0EE0FFF1F05
:103630006A95E1F78091200290912102E80FF91F2D
:10364000EE0FFF1FEA5AFD4F8081918190FD42C02D
:10365000C6019F938F9380E492E09F938F9380E3C2
:1036600092E09F938F930E94B52D0F900F900F9033
:103670000F900F900F90A5CF6DE970E080E492E07D
:103680000E94D02B7E018DE0E80EF11C69E970E00C
:10369000C7010E94D02B6E0182E1C80ED11C65E9E2
:1036A00070E0C6010E94D02BE0912202F09123022B
:1036B00044E0EE0FFF1F4A95E1F7809120029091C0
:1036C0002102E80FF91FEE0FFF1FEA5AFD4F80811C
:1036D00087FFBECFC701BDCF6BE870E080E492E00A
:1036E0000E94D02B7E018DE0E80EF11C69E970E0AC
:1036F000C7010E94D02B6E0182E1C80ED11C65E982
:1037000070E0C6010E94D02BE0912202F0912302CA
:1037100024E0EE0FFF1F2A95E1F78091200290919F
:103720002102E80FF91FEE0FFF1FEA5AFD4F8081BB
:1037300086FDD0CF8DCF61E870E080E492E00E94FA
:10374000D02BE0912202F091230284E0EE0FFF1FC4
:103750008A95E1F78091200290912102E80FF91FEC
:10376000EE0FFF1FEA5AFD4F818186951F9272CF9F
:1037700080E392E034CF1F920F920FB60F92112484
:103780002F933F938F939F93AF93BF938091240286
:1037900090912502A0912602B091270230910A0251
:1037A00023E0230F2D3758F50196A11DB11D20935D
:1037B0000A028093240290932502A0932602B093DC
:1037C000270280910B0290910C02A0910D02B09102
:1037D0000E020196A11DB11D80930B0290930C0265
:1037E000A0930D02B0930E02BF91AF919F918F9164
:1037F0003F912F910F900FBE0F901F90189526E8C4
:10380000230F0296A11DB11DD2CF1F920F920FB6AA
:103810000F9211242F933F934F935F936F937F9356
:103820008F939F93AF93BF93EF93FF938091B900D2
:10383000887F803609F44AC0F0F5883209F4A7C0C1
:1038400018F5803109F49BC0B8F4882309F4F9C055
:10385000883009F494C0FF91EF91BF91AF919F918F
:103860008F917F916F915F914F913F912F910F9029
:103870000FBE0F901F901895883109F488C08032D0
:1038800051F78093E30114C0803409F49DC040F4E3
:103890008033B9F38833F9F68093E30185ECB0C047
:1038A000803509F485C0883509F496C0883499F6C6
:1038B0000E947F19D0CF883909F48CC038F5883739
:1038C00029F050F4883611F0803729F683E0809390
:1038D000E4011092E20157C0883809F47BC08039B6
:1038E00019F0803809F0B7CF8091E201803208F0FA
:1038F00071C0E091E20181E08E0F8093E20180913E
:10390000BB00F0E0EE53FE4F80833DC0803B39F0BA
:10391000E0F4803A09F479C0883A09F09CCF84E059
:103920008093E4011092C1011092C001E091100255
:10393000F091110209958091C00181110FC081E0C1
:103940008093C0011092A00109C0803C09F4A6CF69
:10395000883C09F4A3CF883B09F07DCFE091C101F9
:1039600081E08E0F8093C101F0E0E056FE4F808130
:103970008093BB009091C1018091C00129C08091CA
:1039800009028093BB0085EC8093BC0064CF9091CA
:10399000080280910702981758F5E091080281E02B
:1039A0008E0F80930802F0E0E951FE4F8081E9CF4D
:1039B000E091080281E08E0F809308028091BB00A5
:1039C000F0E0E951FE4F8083909108028091070258
:1039D0009817C8F285E8D8CFE091080281E08E0FF1
:1039E000809308028091BB00F0E0E951FE4F808394
:1039F0008091E60181115CCF81E08093E50184EA4A
:103A00008093BC001092E40126CF85EC8093BC002B
:103A10001092E4018091E201803230F4E091E20101
:103A2000F0E0EE53FE4F10826091E20170E0E09111
:103A30001202F091130282EC91E009951092E201DA
:103A40000ACF1092E30134CF1F920F920FB60F925C
:103A500011242F933F934F935F936F937F938F9393
:103A60009F93AF93BF93EF93FF938091C90390917E
:103A7000CA030E94F115FF91EF91BF91AF919F9101
:103A80008F917F916F915F914F913F912F910F9007
:103A90000FBE0F901F9018951F920F920FB60F92A6
:103AA00011242F933F934F935F936F937F938F9343
:103AB0009F93AF93BF93EF93FF938091C703909130
:103AC000C8030E94F115FF91EF91BF91AF919F91B3
:103AD0008F917F916F915F914F913F912F910F90B7
:103AE0000FBE0F901F901895CF93DF931092BE03D7
:103AF0001092BD0388EE93E0A0E0B0E08093BF0396
:103B00009093C003A093C103B093C20380E191E0FE
:103B10009093BC038093BB031092DA031092D903F5
:103B200020E830E03093DC032093DB0380E490E076
:103B30009093DE038093DD033093E0032093DF0353
:103B40009093E2038093E1031092ED031092E4035B
:103B50001092E3031092E6031092E50381E0809354
:103B6000EC038093EB032FEF3FEF3093EA032093B6
:103B7000E9033093E8032093E7038093EE03109268
:103B8000EF031092F1031092F00382E291E0909320
:103B9000D8038093D7031092F3031092F20310928C
:103BA000F5031092F4031092F7031092F6038EE0DF
:103BB0008093FB038AE08093FC038BE08093FD03FA
:103BC0008CE08093FE038DE08093FF0380E580937B
:103BD00015041092160462E082E00E94BE0662E0C4
:103BE00083E00E94BE06E2EBFBE0E491F0E0EE0F22
:103BF000FF1FEA55F44FA591B491B093CC03A09365
:103C0000CB03E4E9FBE044914093CF03E3EBFBE01B
:103C1000E491F0E0EE0FFF1FEA55F44FC591D49107
:103C2000D093CE03C093CD03E5E9FBE0E491E093AC
:103C3000D0031092D2031092D3031092D4031092A7
:103C4000D5032BE33FE1C9010197F1F79C91842F44
:103C5000892391E009F490E08881E82309F09260DB
:103C60002BEC33E09093D1033093C8032093C70328
:103C7000809169008C7F816080936900E89A81E07F
:103C80008093D6033093CA032093C90380916900BF
:103C9000837F846080936900E99A82E08093D603F1
:103CA000DF91CF910895CF93DF93CDB7DEB76097C3
:103CB0000FB6F894DEBF0FBECDBF789484B5826096
:103CC00084BD84B5816084BD85B5826085BD85B5C0
:103CD000816085BD80916E00816080936E0010923E
:103CE00081008091810082608093810080918100B9
:103CF000816080938100809180008160809380004A
:103D00008091B10084608093B1008091B0008160A7
:103D10008093B00080917A00846080937A008091D3
:103D20007A00826080937A0080917A00816080932B
:103D30007A0080917A00806880937A001092C100A6
:103D40000E94D7192091AE033091AF032A5A3D4FFC
:103D5000F901E05CFE4F80818F7090E001969093B6
:103D6000550280935402265B3E4FF901808190E01A
:103D7000019690935102809350028091F6039091A6
:103D8000F703892B11F10E945C162091DD0330911D
:103D9000DE038091DB039091DC03213231050CF0CE
:103DA000CAC2B9016052710977FF02C06F5F7F4FCD
:103DB000759567958357910997FD019600E210E08C
:103DC00023E730E04EE456E0C9C22091DD03309194
:103DD000DE03C901079697FD0796B3E09595879591
:103DE000BA95E1F72091DB033091DC03AC01429FEF
:103DF000C001439F900D529F900D11240E947D2C75
:103E00009093F7038093F603892B09F0BCCF60E011
:103E100086E00E94BE0660E081E10E94BE0661E08D
:103E200084E00E94BE0661E089E00E94BE0662E076
:103E30008FE00E94BE0662E080E10E94BE0662E062
:103E400088E00E94BE0661E087E00E94BE0661E055
:103E500085E00E94BE0660E084E00E94900660E07B
:103E600087E00E94900670E060E089E00E94FA0618
:103E700070E060E085E00E94FA0610921502109250
:103E800014021092B8031092B7030E9465118FE0DC
:103E900096E0909311028093100280E196E0909357
:103EA0001302809312028CE08093B8008091D603B5
:103EB000823008F03FC4F8948BEC93E00E94F11537
:103EC0008091D2039091D303A091D403B091D503F4
:103ED00078948093020190930301A0930401B0931E
:103EE00005016EEE7AE0CE0101967C010E94D02B96
:103EF0000E945C1682E08093EB038093EC0321E048
:103F000030E03093E8032093E7031092EA03109225
:103F1000E90322E130E03093E4032093E30327E157
:103F200030E03093E6032093E5031F9294E09F93E3
:103F30001F928F93FF92EF9280E392E09F938F9373
:103F40000E94B52D80E392E00E94331628E130E014
:103F500046E650E062E170E08EE090E00E94B60F2D
:103F60000E9445146CED75E080E090E00E947C07B3
:103F70000E9436190FB6F894DEBF0FBECDBF40E3E6
:103F8000242E42E0342E11E081E10E946706019761
:103F900051F48091B603811106C01093B6031092BC
:103FA000B5031092B40386E00E946706019709F0FA
:103FB0007BC08091B303811177C01093B30310933A
:103FC000B2038090B0039090B103C090AE03D09044
:103FD000AF03A090B403B090B503A091AA03B09131
:103FE000AB0328EE33E00E94482C20E030E140E0B3
:103FF00050E00E94232C29013A0134E0CC0CDD1C56
:104000003A95E1F7D401892859F4F601EA0DFB1D30
:10401000EE0FFF1FEA5AFD4FA081B181AF73BB279E
:1040200025E835E441E050E00E944F2CA3019201C5
:104030000E94232CC9010E941013F601EA0DFB1DFA
:10404000EE0FFF1FEA5AFD4F808191818F739927F0
:10405000892B21F061E084E00E949006CA0CDB1CF1
:10406000CC0CDD1C96012A5A3D4F6901F901818172
:1040700086958D871E866D857E85660F771F85E008
:104080000E94FA06F601808187FB882780F98F87D6
:10409000188A8FEF2F853889829FB001839F700D1A
:1040A000112489E00E94FA0686E00E946706892BA7
:1040B00009F0BDC08091B303882309F4B8C0109201
:1040C000B303A090AE03B090AF038090B403909080
:1040D000B5036501F4E0CC0CDD1CFA95E1F7C80CE2
:1040E000D91CCC0CDD1CA6014A5A5D4F6A01FA01AD
:1040F00060817181B6E076956795BA95E1F7617058
:1041000087E00E949006F6018081918190FD04C0B5
:1041100060E084E00E949006FFEF8F1A9F0A909261
:10412000B5038092B4038091540290915502881691
:1041300099060CF47CC08091520290915302019632
:104140009093530280935202209150023091510279
:1041500082179307CCF080914E0290914F021092FB
:10416000530210925202A816B90671F4F501EA56EC
:10417000FC4F808190E0E4E095958795EA95E1F722
:1041800090934F0280934E021092B5031092B403A5
:1041900080914E0290914F029093AF038093AE03B3
:1041A0008A5A9D4FFC01E65BFE4F208130E02F5F75
:1041B0003F4F3093510220935002805C9E4FFC0190
:1041C00080818F7090E00196909355028093540205
:1041D00080914C0290914D02892B49F562E87BE079
:1041E00080E492E00E94D02B8091AF038F93809166
:1041F000AE038F9380E492E09F938F933F922F9230
:104200000E94B52D80E392E00E944016609150021A
:1042100070915102809152029091530201960E9436
:10422000BB160F900F900F900F900F900F9081E1A1
:104230000E946706892B29F48091B60381111092A0
:10424000B6038091D603823008F076C2F8948BECE6
:1042500093E00E94F1158090D2039090D303A09038
:10426000D403B090D5037894C501B40124E030E0C4
:1042700040E050E00E94232C29013A0160910201A4
:1042800070910301809104019091050124E030E0D8
:1042900040E050E00E94232C2415350546055705C3
:1042A0000CF04CC28092020190920301A092040192
:1042B000B092050121E030E030932F0220932E02CE
:1042C00068E070E090E080E00E94CF1580932D02BE
:1042D0006FE070E081E090E00E94CF15082F80939E
:1042E0002C0260E170E082E090E00E94CF158093A4
:1042F0002B02C0904C02D0904D0254E1C516D1045F
:1043000008F020C3F601E957FE4D0C94422CB3236C
:104310003F24E5248226D8264B277527BC27E6278D
:104320009D2500261028BE281B29A4290F2AC52A4E
:10433000C52AFC2A4C2BB9016054710977FF02C0D1
:104340006F5F7F4F759567958255910997FD01962F
:1043500000E410E022E530E04EE258E095958795C4
:104360000E942F1082E08093F9038091F4039091D2
:10437000F503892B09F4E8C08091DD039091DE03F9
:10438000809709F0DFC08CE38093F8031092150248
:10439000109214021092B8031092B7030E94651194
:1043A0008FE096E0909311028093100280E196E0F6
:1043B00090931302809312028091FF0387FD1EC029
:1043C00061E00E94BE0661E08091FF030E949006BA
:1043D00061E070E080E090E00E947C0760E0809106
:1043E000FF030E9490066AE070E080E090E00E9487
:1043F0007C0761E08091FF030E9490068091F403A6
:104400009091F503892B09F45EC120910C04309141
:104410000D0440910E0450910F0460E074E284EFAB
:1044200090E00E94012C2051310941095109569513
:104430004795379527952093B80064E080E496E08F
:104440000E942E136091DD03615087ED93E00E947E
:10445000E31364E08CE396E00E942E138091F9034D
:1044600060E1813009F064E187ED93E00E94E3139D
:1044700064E088E396E00E942E138FE88093140492
:104480008091DB039091DC038038910509F034C101
:104490008091DD039091DE038034910509F03CC1E9
:1044A0008091F903813009F025C18FE980931404CC
:1044B00012E16AED87ED93E00E94E313612F87ED2F
:1044C00093E00E94E31361E887ED93E00E94E31319
:1044D0006091140487ED93E00E94E31369ED87ED8A
:1044E00093E00E94E3138091F90362E2813009F0C6
:1044F00061EF87ED93E00E94E31366E082E396E0CC
:104500000E942E138091F4039091F503892B09F4F6
:1045100007C1209110043091110440911204509170
:10452000130460E074E284EF90E00E94012C2051BB
:10453000310941095109569547953795279520939B
:10454000B80065CC8DE320CF61E08091FD030E942F
:10455000BE0661E08091FE030E94BE068091FD03CD
:10456000082E000C990BFC01E055F44FE491F0E0AB
:10457000EE0FFF1FEC5BF94F25913491309305044A
:1045800020930404FC01EE56F44FE491E0930A04F6
:104590008091FE03082E000C990BFC01E055F44FAE
:1045A000E491F0E0EE0FFF1FEC5BF94FA591B491A1
:1045B000B0930704A0930604FC01EE56F44FE49177
:1045C000E0930B048C91E82BEC938091F203909193
:1045D000F303892B09F434C01FB7F89480910F02BC
:1045E000811127C0EAEBFBE08491ECE9FBE09491B8
:1045F000E82FF0E0EE0FFF1FE85DF94FA591B491B1
:10460000EC91E92321F461E08AE00E94900661E0E8
:104610008AE00E94BE068CB580618CBD8CB580643A
:104620008CBD61E08DE00E94BE0661E08BE00E94DF
:10463000BE0680910F028F5F80930F021FBFBCCE1A
:1046400061E08091FB030E94BE0661E08091FC0363
:104650000E94BE068091FB03082E000C990BFC0102
:10466000E055F44FE491F0E0EE0FFF1FEC5BF94FE3
:10467000259134913093010420930004FC01EE56FF
:10468000F44FE491E09308048091FC03082E000CA1
:10469000990BFC01E055F44FE491F0E0EE0FFF1FA1
:1046A000EC5BF94FA591B491B0930304A09302047D
:1046B000FC01EE56F44FE491E09309048C91E095EF
:1046C000E823EC9379CE8091F2039091F303892B48
:1046D00031F080911504909116040E940C0AE0912B
:1046E0000604F0910704908180910B048095892342
:1046F0008083A3CE8FECDACE8036910569F4809169
:10470000DD039091DE03409739F48091F903813005
:1047100029F480E18093140412E0CBCE8FEAFACF23
:10472000E0910604F0910704808190910B04892B9D
:1047300080836DCBF894C4CBF8948DCD421653068C
:10474000640675060CF0BCCD8092020190920301C4
:10475000A0920401B09205014FEF5FEF50932F023A
:1047600040932E02ADCD8091290290912A020E94A1
:104770006F1888E00E946706892B09F048C081E025
:1047800090E090934D0280934C0262E87BE0C70179
:104790000E94D02B0E945C1682E08093EB038093F2
:1047A000EC03E1E0F0E0F093E803E093E70310921C
:1047B000EA031092E90328E130E04AE550E062E1C3
:1047C00070E083E190E00E94B60F87E190E0909363
:1047D000E4038093E3039093E6038093E5038091E1
:1047E0004F028F9380914E028F93FF92EF923F92F0
:1047F0002F920E94B52D80E392E00E943316109311
:10480000B2030F900F900F900F900F900F90809128
:104810002C02882321F182E090E090934D02809356
:104820004C028091AE039091AF039093230280934A
:104830002202809120029091210297FD0AC0C0902F
:104840005402D09055028C159D05BCF0F1E0CF1AB2
:10485000D108D0922102C09220020E942D1880918E
:104860002B02882309F46EC02BE030E030934D0218
:1048700020934C020E94361765C06C01EACF0023DA
:1048800009F49DC0882309F49DC041E050E0509395
:104890002F0240932E0280912E0290912F020097BA
:1048A000F1F120914E0230914F02820F931F8A3016
:1048B000910514F089E090E097FF02C090E080E05D
:1048C00090934F0280934E0210922F0210922E026C
:1048D00022E02093EB032093EC032FE530E03093AC
:1048E000E4032093E30327E130E03093E6032093D1
:1048F000E5039F938F938CE491E09F938F933F9276
:104900002F920E94B52D80E392E00E9433161093FF
:10491000B2030F900F900F900F900F900F9088E0C0
:104920000E946706892B71F010924D0210924C0282
:104930000E94361910922A021092290290E080E01B
:104940000E946F188091290290912A02019667E0D7
:1049500070E00E94ED2B90932A02809329022FB7DA
:10496000F894609124027091250280912602909122
:1049700027022FBF28E532E040E050E00E94012CE2
:1049800021E06C3271408105910508F420E020930C
:1049900028028091290290912A02892B41F480916A
:1049A000B203882321F00E9445141092B20380E0E4
:1049B00090E0892B09F4E8CA0E940000E4CA811142
:1049C00064CF69CF8FEF9FEF6CCF80912E029091D3
:1049D0002F020097E9F02091200230912102820FEE
:1049E000931F97FDA7C02091540230915502821762
:1049F000930714F0C901019790932102809320023C
:104A000010922F0210922E020E9493171093B2035D
:104A100080912C02882371F010924D0210924C026A
:104A20000E94361910922A021092290290E080E02A
:104A30000E946F1880912D02882341F083E090E05E
:104A400090934D0280934C020E94561780912B0246
:104A5000882309F477CF89E090E090934D0280930A
:104A60004C0280912202909123028A5A9D4FFC01B0
:104A7000E65BFE4F208130E030930101209300017E
:104A8000805C9E4FFC01808190E074E09595879555
:104A90007A95E1F790931F0280931E020E945C16A4
:104AA0002EE330E04CE450E062E070E082E090E021
:104AB0000E94B60F64E07BE080E492E00E94D02B7D
:104AC00082E08093EB038093EC032BE030E03093A3
:104AD000E4032093E30386E090E09093E603809361
:104AE000E50380E492E00E9433161093EB031093E9
:104AF000EC036AEF7AE080E492E00E94D02B809190
:104B000023028F93809122028F9380E492E09F93FF
:104B10008F933F922F920E94B52D80E392E00E94E6
:104B200040161093B2030F900F900F900F900F90BC
:104B30000F9008CF90E080E05FCF20912E0230915F
:104B40002F0221153105B9F080911E0290911F02AC
:104B5000820F931F8A30910514F089E090E097FF4F
:104B600002C090E080E090931F0280931E0210929A
:104B70002F0210922E026AE07BE0C7010E94D02B28
:104B800080911F028F9380911E028F93FF92EF926C
:104B90003F922F920E94B52D4BE050E05093E403DA
:104BA0004093E3038EE190E09093E6038093E50366
:104BB0001093EB031093EC0380E392E00E94331612
:104BC0001093B2030F900F900F900F900F900F90D3
:104BD00080912B02882341F082E090E090934D0277
:104BE00080934C020E942D1880912D02882309F495
:104BF000A9CE8AE090E090934D0280934C02A2CE21
:104C000020912E0230912F0221153105C1F08091A3
:104C1000000190910101820F931F8F3F910519F0C0
:104C200014F08FEF90E097FF02C090E080E0909347
:104C300001018093000110922F0210922E0267E171
:104C40007BE0C7010E94D02B80910001909101016F
:104C500001969F938F93FF92EF923F922F920E9423
:104C6000B52D8BE090E09093E4038093E30388E21A
:104C700090E09093E6038093E5031093EB03109389
:104C8000EC0380E392E00E9433161093B2030F907E
:104C90000F900F900F900F900F9080912B02882310
:104CA00041F082E090E090934D0280934C020E948C
:104CB0002D1880912D02882309F444CEE091220220
:104CC000F0912302EA5AFD4FDF01A65BBE4F8091AF
:104CD00000018C93E05CFE4F80818F7020911E025A
:104CE00030911F0264E0220F331F6A95E1F7822B97
:104CF000808382E090E090934D0280934C020E946A
:104D00002D1820CE8091290290912A020E941F1A0C
:104D100080912C02882341F082E090E090934D0234
:104D200080934C020E942D1880912D02882309F453
:104D300009CEE0912202F091230244E0EE0FFF1F22
:104D40004A95E1F78091200290912102E80FF91F26
:104D5000EE0FFF1FEA5AFD4F8081918190931D0253
:104D600080931C0280911A0290911B02823091055F
:104D7000A9F044F4009779F0019709F0E3CD88E0B9
:104D800090E039CF8330910561F0049709F0DACDD6
:104D900086E090E030CF84E090E02DCF85E090E099
:104DA0002ACFE7E0F0E0F0934D02E0934C02CACD49
:104DB0008091220290912302609120027091210241
:104DC00024E0880F991F2A95E1F7FC01E60FF71FF1
:104DD000EE0FFF1FEA5AFD4F408151819A012F7358
:104DE0003327E0912E02F0912F02309779F02E0FA9
:104DF0003F1F2233310514F021E330E037FF02C0BA
:104E000030E020E010922F0210922E02FC01E60FFB
:104E1000F71FEE0FFF1FEA5AFD4F407C242B352B66
:104E20003183208390E080E00E941F1A1093B20328
:104E300080912C02882309F183E090E090934D0249
:104E400080934C02E0912202F091230204E0EE0FE5
:104E5000FF1F0A95E1F78091200290912102E80F4F
:104E6000F91FEE0FFF1FEA5AFD4F80911C0290912F
:104E70001D02918380830E94561780912D02882302
:104E800009F460CD83E090E090934D0280934C0252
:104E90000E94561757CD80912E0290912F020097B5
:104EA000F9F02091200230912102E0912202F0914C
:104EB0002302A4E0EE0FFF1FAA95E1F7E20FF31F14
:104EC000EE0FFF1FEA5AFD4F208131811816190697
:104ED00054F420683183208310922F0210922E0206
:104EE00082E090E0A1CF2F77F5CF809122029091C0
:104EF0002302609120027091210204E0880F991F23
:104F00000A95E1F7FC01E60FF71FEE0FFF1FEA5AC3
:104F1000FD4F408151819A01232F33272695E0913F
:104F20002E02F0912F023097A9F005E00E9FD001DC
:104F30000F9FB00D11242A0F3B1F2E37310514F09F
:104F40002DE730E037FF02C030E020E010922F0262
:104F500010922E02FC01E60FF71FEE0FFF1FEA5A18
:104F6000FD4F5170322F2227330F242B352B3183E5
:104F7000208384E090E058CF80912E0290912F0200
:104F80000097F9F02091200230912102E091220255
:104F9000F091230264E0EE0FFF1F6A95E1F7E20F44
:104FA000F31FEE0FFF1FEA5AFD4F208131811816C3
:104FB000190654F420643183208310922F0210923A
:104FC0002E0283E090E030CF2F7BF5CF80912E0230
:104FD00090912F020097F9F0209120023091210248
:104FE000E0912202F091230244E0EE0FFF1F4A9568
:104FF000E1F7E20FF31FEE0FFF1FEA5AFD4F20818A
:1050000031811816190654F43160318320831092CF
:105010002F0210922E0281E090E006CF3E7FF5CF66
:1050200020912E0230912F0221153105B9F0809187
:10503000180290911902820F931F8630910514F087
:1050400085E090E097FF02C090E080E09093190225
:105050008093180210922F0210922E028091180253
:105060009091190222E02093EB032093EC0322E1BC
:1050700030E03093E4032093E30328E030E0309302
:10508000E6032093E5038230910509F442C07CF5E4
:105090000097E1F166E37BE0019789F11093B20399
:1050A00080912B02882371F010924D0210924C02D5
:1050B0000E94361910922A021092290290E080E094
:1050C0000E946F1880912D02882309F43BCC8091B7
:1050D00018029091190282309105E9F11CF50097B0
:1050E000B9F1019709F02ECC8EE090E084CD8430A8
:1050F0009105A9F08CF062E27BE0059779F6C70193
:105100000E94D02BC7010E943316C8CF6BE37BE00F
:10511000F6CF61E37BE0F3CF6CE27BE0F0CF67E2B8
:105120007BE0EDCF84309105E1F0C4F0059709F004
:1051300009CC83E190E090934D0280934C028091E2
:10514000AA039091AB039093170280931602FACBB7
:105150008CE090E050CD80E190E04DCD81E190E099
:105160004ACD42E150E050934D0240934C0281E021
:1051700090E09093B1038093B003E4CB20912E0292
:1051800030912F0221153105B9F0809122029091C2
:105190002302820F931F8A30910514F089E090E07A
:1051A00097FF02C090E080E0909323028093220258
:1051B00010922F0210922E0260E47BE0C7010E9441
:1051C000D02B809123028F93809122028F93FF92A4
:1051D000EF923F922F920E94B52D8CE090E0909339
:1051E000E4038093E3038EE190E09093E6038093E1
:1051F000E5031093EB031093EC0380E392E00E942D
:1052000033161093B2030F900F900F900F900F90E2
:105210000F9080912D02882309F421CB8DE090E03E
:1052200090934D0280934C02E1E0F0E0F093210274
:10523000E093200214CB20912E0230912F022115F1
:105240003105C1F08091200290912102820F931FBD
:105250008131910514F080E190E01816190614F0E0
:1052600081E090E0909321028093200210922F021F
:1052700010922E026CE47BE0C7010E94D02B80913B
:1052800021028F93809120028F93FF92EF923F92A1
:105290002F920E94B52D8CE090E09093E4038093D0
:1052A000E30388E290E09093E6038093E503109394
:1052B000EB031093EC0380E392E00E94331610930B
:1052C000B2030F900F900F900F900F900F9080915E
:1052D0002D02882309F4C3CA8091200290912102F3
:1052E0002091220230912302B90105E0660F771F59
:1052F0000A95E1F750E040E04817590764F4FA01D5
:10530000EE0FFF1FE60FF71FEA5AFD4F11821082C2
:105310004F5F5F4FF1CFA9014A5A5D4FFA01E05C40
:10532000FE4F81508F702295207F280F2083465B8F
:105330005E4FFA0110822BE030E030934D02209353
:105340004C020E9436178BCA20912E0230912F02F8
:1053500021153105B9F08091000190910101820F72
:10536000931F8A30910514F089E090E097FF02C006
:1053700090E080E0909301018093000110922F0251
:1053800010922E0280910001909101012091220241
:10539000309123028217930749F401966AE070E086
:1053A0000E94ED2B909323028093220268E57BE01C
:1053B000C7010E94D02B809101018F938091000141
:1053C0008F93FF92EF923F922F920E94B52D8CE027
:1053D00090E09093E4038093E3038EE190E0909358
:1053E000E6038093E5031093EB031093EC0380E353
:1053F00092E00E9433161093B2030F900F900F901B
:105400000F900F900F9080912D02882309F427CAE6
:105410008FE090E090934D0280934C0220CA20913F
:105420002E0230912F0221153105C9F180912202FF
:1054300090912302820F931F909323028093220264
:1054400040910001509101018417950799F489302A
:10545000910539F488E090E0909323028093220232
:1054600009C0009709F08EC041E050E0509323023C
:105470004093220280912202909123028A3091056A
:1054800014F089E090E097FF02C090E080E09093F4
:1054900023028093220210922F0210922E0263E6C2
:1054A0007BE0C7010E94D02B809123028F938091D3
:1054B00022028F93FF92EF923F922F920E94B52D7E
:1054C0008CE090E09093E4038093E30388E290E023
:1054D0009093E6038093E5031093EB031093EC03A2
:1054E00080E392E00E9433161093B2030F900F9066
:1054F0000F900F900F900F9080912D02882309F448
:10550000AEC96091000170910101FB01EA56FC4FA8
:1055100000810F70A02EB12C809122029091230265
:10552000F5E0660F771FFA95E1F76C01A5E0CC0C6A
:10553000DD1CAA95E1F750E040E09A01220F331FED
:10554000D901A60FB71FAA5ABD4F0D90BC91A02D2F
:105550002C0D3D1D2A5A3D4FF901B183A0834F5FA9
:105560005F4FA416B5064CF79C012A5A3D4FF9012E
:10557000E05CFE4F8295807F080F0083265B3E4FE4
:10558000F901D8CE820F931F67CF6EE67BE0C7018B
:105590000E94D02B1093EB031093EC0342E150E0F8
:1055A0005093E4034093E30384E290E09093E60396
:1055B0008093E503C7010E9433161093B2038091D4
:1055C0002B02882341F0EBE0F0E0F0934D02E093F2
:1055D0004C020E94361780912D02882309F4B2C92B
:1055E00080914C0290914D02409719F40E94B71996
:1055F0009BC90E94D71998C920912E0230912F0281
:1056000021153105C1F08091B0039091B103820F53
:10561000931F8233910514F081E390E01816190668
:1056200014F081E090E09093B1038093B003109266
:105630002F0210922E026091B0037091B10361505D
:105640007109C7010E947C1682E08093EB0380936E
:10565000EC0386E190E09093E4038093E30324E27B
:1056600030E03093E6032093E503C7010E94331630
:105670001093B20380912B02882309F463C94BE095
:1056800050E050934D0240934C020E943617109206
:10569000B1031092B00356C920912E0230912F020F
:1056A0002115310501F185E0829FA001839F500DF6
:1056B00011248091AA039091AB03840F951F833826
:1056C00054E1950714F082E894E18E38E2E19E07F8
:1056D00014F48EE892E19093AB038093AA031092A6
:1056E0002F0210922E0267E77BE0C7010E94D02BA9
:1056F0008091AA039091AB0368EE73E00E94ED2BBA
:105700009F938F937F936F93FF92EF923F922F928D
:105710000E94B52D1093EB031093EC0322E130E0CF
:105720003093E4032093E30344E250E05093E60314
:105730004093E50380E392E00E9433161093B20396
:105740000FB6F894DEBF0FBECDBF80912B02882329
:1057500081F080911602909117029093AB03809391
:10576000AA03EBE0F0E0F0934D02E0934C020E94BC
:10577000361780912D02882309F4E4C80E94B719D6
:1057800073C882E291E09093D8038093D70380910D
:10579000F6039091F703009711F00C94192D0895DA
:1057A000FB01DC0105900D920020E1F70895F999C5
:1057B000FECF92BD81BDF89A992780B50895262F16
:1057C000F999FECF1FBA92BD81BD20BD0FB6F894E6
:1057D000FA9AF99A0FBE0196089597FB072E16F4D0
:1057E000009407D077FD09D00E945A2C07FC05D001
:1057F0003EF4909581959F4F0895709561957F4FE8
:105800000895A1E21A2EAA1BBB1BFD010DC0AA1F01
:10581000BB1FEE1FFF1FA217B307E407F50720F019
:10582000A21BB30BE40BF50B661F771F881F991F94
:105830001A9469F760957095809590959B01AC01DD
:10584000BD01CF010895052E97FB1EF400940E9420
:105850003A2C57FD07D00E94012C07FC03D04EF4D0
:105860000C943A2C50954095309521953F4F4F4FD1
:105870005F4F089590958095709561957F4F8F4FFC
:105880009F4F0895EE0FFF1F0590F491E02D0994AE
:105890000E946E2CB7FF0895821B930B08950E94FF
:1058A0006E2CA59F900DB49F900DA49F800D911D0F
:1058B00011240895AA1BBB1B51E107C0AA1FBB1FDF
:1058C000A617B70710F0A61BB70B881F991F5A958C
:1058D000A9F780959095BC01CD010895A29FB001D4
:1058E000B39FC001A39F700D811D1124911DB29F14
:1058F000700D811D1124911D08950F931F93CF9357
:10590000DF938230910510F482E090E0E091190479
:10591000F0911A0430E020E0B0E0A0E0309799F474
:105920002115310509F44AC0281B390B24303105F3
:10593000D8F58A819B816115710589F1FB019383FB
:105940008283FE0111C04081518102811381481779
:105950005907E0F04817590799F4109761F012962B
:105960000C93129713961C933296CF01DF91CF912F
:105970001F910F9108950093190410931A04F4CF06
:105980002115310551F04217530738F0A901DB0109
:105990009A01BD01DF01F801C1CFEF01F9CF90936A
:1059A0001A0480931904CDCFFE01E20FF31F8193F7
:1059B00091932250310939832883D7CF209117043E
:1059C00030911804232B41F42091080130910901F2
:1059D0003093180420931704209106013091070199
:1059E0002115310541F42DB73EB740910A01509180
:1059F0000B01241B350BE0911704F0911804E217FA
:105A0000F307A0F42E1B3F0B2817390778F0AC01E1
:105A10004E5F5F4F2417350748F04E0F5F1F5093BE
:105A2000180440931704819391939FCFF0E0E0E036
:105A30009CCFCF93DF930097E9F0FC01329713825C
:105A40001282A0911904B0911A04ED0130E020E017
:105A50001097A1F420813181820F931F20911704A8
:105A6000309118042817390709F061C0F093180421
:105A7000E0931704DF91CF910895EA01CE17DF0775
:105A8000E8F54A815B819E0141155105B1F7E901B5
:105A9000FB83EA8349915991C40FD51FEC17FD0789
:105AA00061F4808191810296840F951FE9019983A9
:105AB0008883828193819B838A83F0E0E0E0129661
:105AC0008D919C9113970097B9F52D913C91119769
:105AD000CD010296820F931F209117043091180474
