:100000000C94E4050C94391C0C94121C0C940C06F2
:100010000C940C060C940C060C940C060C940C0618
:100020000C940C060C940C060C940C060C940C0608
:100030000C940C060C940C060C940C060C940C06F8
:100040000C94C81B0C940C060C940C060C940C0617
:100050000C940C060C940C060C940C060C940C06D8
:100060000C94601C0C940C06253032643A257320E5
:1000700025632563256300535445503A2530326487
:10008000002020205643463A25640020534C494422
:10009000453A2573004F4646004F4E2000414343EA
:1000A000454E543A2573004E4F20005945530020C9
:1000B00020544945443A2573002020200020202068
:1000C00020202020202020005359534D454E55001C
:1000D000204F463A253364004359433A25336400A0
:1000E000432D00432300442D00442300452D0046AA
:1000F0002D00462300472D00472300412D004123BA
:1001000000422D0000000000003E5B4F5B3E3E6B56
:100110004F6B3E1C3E7C3E1C183C7E3C181C577DA1
:10012000571C1C5E7F5E1C00183C1800FFE7C3E7ED
:10013000FF0018241800FFE7DBE7FF30483A060EFF
:100140002629792926407F050507407F05253F5A46
:100150003CE73C5A7F3E1C1C08081C1C3E7F1422B6
:100160007F22145F5F005F5F06097F017F00668961
:10017000956A606060606094A2FFA29408047E04A7
:100180000810207E201008082A1C08081C2A0808CD
:100190001E101010100C1E0C1E0C30383E3830068D
:1001A0000E3E0E06000000000000005F0000000789
:1001B000000700147F147F14242A7F2A12231308B7
:1001C000646236495620500008070300001C224193
:1001D000000041221C002A1C7F1C2A08083E080837
:1001E00000807030000808080808000060600020E7
:1001F000100804023E5149453E00427F40007249CA
:100200004949462141494D331814127F102745456D
:1002100045393C4A49493141211109073649494983
:1002200036464949291E00001400000040340000F1
:10023000000814224114141414140041221408025A
:10024000015909063E415D594E7C1211127C7F49CD
:100250004949363E414141227F4141413E7F494922
:1002600049417F090909013E414151737F0808084E
:100270007F00417F41002040413F017F081422411F
:100280007F404040407F021C027F7F0408107F3E79
:100290004141413E7F090909063E4151215E7F09E6
:1002A000192946264949493203017F01033F40404D
:1002B000403F1F2040201F3F4038403F6314081438
:1002C0006303047804036159494D43007F41414170
:1002D0000204081020004141417F04020102044051
:1002E00040404040000307080020545478407F28D5
:1002F0004444383844444428384444287F385454CB
:10030000541800087E090218A4A49C787F080404ED
:100310007800447D40002040403D007F102844008C
:1003200000417F40007C047804787C08040478381D
:1003300044444438FC1824241818242418FC7C084D
:10034000040408485454542404043F44243C4040CA
:10035000207C1C2040201C3C4030403C442810287D
:10036000444C9090907C4464544C440008364100C6
:100370000000770000004136080002010204023C40
:100380002623263C1EA1A161123A4040207A38540F
:100390005455592155557941225454784221555488
:1003A000784020545579400C1E52721239555555DB
:1003B00059395454545939555454580000457C41C6
:1003C0000002457D420001457C407D1211127DF006
:1003D000282528F07C545545002054547C547C0A30
:1003E000097F4932494949323A4444443A324A48F9
:1003F00048303A4141217A3A42402078009DA0A0FD
:100400007D3D4242423D3D4040403D3C24FF24244E
:10041000487E4943662B2FFC2F2BFF0929F620C06D
:10042000887E090320545479410000447D413048BE
:10043000484A32384040227A007A0A0A727D0D1901
:10044000317D2629292F28262929292630484D4063
:1004500020380808080808080808382F10C8ACBA5F
:100460002F102834FA00007B000008142A142222DE
:10047000142A14085500550055AA55AA55AAFF5527
:10048000FF55FF000000FF00101010FF00141414AF
:10049000FF001010FF00FF1010F010F0141414FCF7
:1004A000001414F700FF0000FF00FF1414F404FC14
:1004B000141417101F10101F101F1414141F0010F5
:1004C0001010F0000000001F101010101F1010106E
:1004D00010F010000000FF1010101010101010107D
:1004E000FF10000000FF140000FF00FF00001F10BD
:1004F000170000FC04F414141710171414F404F477
:100500000000FF00F714141414141414F700F71467
:100510001414171410101F101F141414F4141010B6
:10052000F010F000001F101F0000001F140000005A
:10053000FC140000F010F01010FF10FF141414FF52
:10054000141010101F00000000F010FFFFFFFFFF4D
:10055000F0F0F0F0F0FFFFFF0000000000FFFF0FE1
:100560000F0F0F0F3844443844FC4A4A4A347E0285
:10057000020606027E027E02635549416338444406
:100580003C04407E201E2006027E020299A5E7A5BB
:10059000991C2A492A1C4C7201724C304A4D4D302C
:1005A0003048784830BC625A463D3E494949007E51
:1005B0000101017E2A2A2A2A2A44445F44444051E8
:1005C0004A444040444A51400000FF0103E080FF9C
:1005D000000008086B6B083612362436060F090F28
:1005E00006000018180000001010003040FF010144
:1005F000001F01011E00191D1712003C3C3C3C006D
:1006000000000000000103070F1F3F7F0080C0E0D3
:10061000F0F8FCFE000000080002010000030407DF
:10062000000000000000000000000000240027007F
:100630002A00DB40A4A62EAF2000A1C8D300408D25
:10064000AED580A800000000250028002B00000087
:10065000600000000000000000000000000000E05A
:100660000000000000000000000000000001E000A9
:1006700000000000000000000000000001F0000089
:10068000000000000000000000000003F000000077
:100690000000000000000000000007F00000000063
:1006A00000000000000000000007F800000000004B
:1006B00000000000000000000FF800000003C00070
:1006C0007E000001E0007F0FF800000003C000FE84
:1006D000000001E000FFEFF800000003C000FE0092
:1006E0000001E000FFFFF800000003C000F0000080
:1006F000000F007FFE7FC0000003C000F00000007C
:100700000F003FFE7FF83FF1FBCFFCFEF3BC3DEF57
:10071000E01FFE7FFF7FFBFFDFFEFEFFBC3DEFE043
:100720001FC6FFFF7FFBFFDFFEFEFFBC3DEFE00FBC
:10073000E3C7FE787BC3DE1EF0FFBC3DEF0007FF82
:1007400087FC787BC3DE1EF0F83C3DEF0001FFFF25
:10075000F0007BC3C01EF0F03C3DEF0001F37FE0F2
:100760003FFBC3CFFEF0F03C3DEF0003E33F807F53
:10077000FBC3DFFEF0F03C3DEF0007E73C00787B79
:10078000C3DE1EF0F03C3DEF0007FFBE00787BC3E8
:10079000DE1EF0F03C3DEF0007FFFE00787BC3DE7D
:1007A0001EF0F03C3DEF000FFFFE007FFBFFDFFE81
:1007B000F0F03FFDEFE00FFFFF007FFBFFDFFEF0FB
:1007C000F03FFDEFE00FF9FF003E79F9CF9EF0F02A
:1007D0001F3DE7E01FF1FF000000000000000000E7
:1007E0000000001F80FF007FFFFFFFFFFFFFFFFFF4
:1007F000FFE01C007F007FFFFFFFFEB46D888D18B7
:10080000E000001F007FFFFFFFFE95AD7DB577E0A4
:1008100000000F007FFFFFFFFEA5AD9D8D19E000DA
:100820000006007FFFFFFFFEB5ADEDB57EE00000E6
:1008300000000001800000000000000000000380B4
:1008400000000000000000000007C00000000000E1
:100850000000000007C00000000000000000000FC2
:10086000C00000000000000000001FE000000000C9
:1008700000000000001FE000000000000000000079
:100880003FE00000000000000000003FF00000001A
:100890000000000000007FF0000000000000001FCA
:1008A000F87FF0000000000000003FFE7FF0000035
:1008B00000000000003FFF7FF0000000000000008B
:1008C0001FFFFBE0000000000000000FFFF9FFC069
:1008D0000000000000000FFFF9FFF800000000001A
:1008E0000007FFF1FFFF00000000000003FC73FFA2
:1008F000FF80000000000001FE3FFFFF80000000BD
:10090000000000FF1E0FFF000000000000007FFE3F
:100910001FFC000000000000003FFFFFF800000087
:10092000000000000FDFFFE0000000000000001FDB
:1009300019FFC0000000000000003F3CFF00000065
:1009400000000000007E7CF80000000000000000B5
:100950007FFE7C0000000000000000FFFFFC0000A4
:10096000000000000000FFFFFE000000000000008B
:1009700000FFFFFE0000000000000001FFEFFE008E
:1009800000000000000001FFCFFE0000000000009A
:100990000003FF07FE0000000000000003FC07FE4C
:1009A0000000000000000003F003FE000000000053
:1009B0000000018000FE00000000000000000000B8
:1009C0007E000000000000000000003E000000006B
:1009D0000000000000000C00000000000007800084
:1009E000FC000003C0000000078001FC000003C001
:1009F000000000078001FC000003C0000000078029
:100A000001E00000001E000000078001E00000007F
:100A10001E007FE3F79FF9FDE7787BDFC0FFF7FF5C
:100A2000BFFDFDFF787BDFC0FFF7FFBFFDFDFF7857
:100A30007BDFC0F0F787BC3DE1FF787BDE00F0F79D
:100A400087BC3DE1F0787BDE0000F787803DE1E088
:100A5000787BDE007FF7879FFDE1E0787BDE00FF9B
:100A6000F787BFFDE1E0787BDE00F0F787BC3DE172
:100A7000E0787BDE00F0F787BC3DE1E0787BDE00CC
:100A8000F0F787BC3DE1E0787BDE00FFF7FFBFFDBC
:100A9000E1E07FFBDFC0FFF7FFBFFDE1E07FFBDFB1
:100AA000C07CF3F39F3DE1E03E7BCFC0000000003F
:100AB00000000000000000FFFFFFFFFFFFFFFFFF3F
:100AC000FFC0FFFFFFFFFD68DB111A31C0FFFFFF12
:100AD000FFFD2B5AFB6AEFC0FFFFFFFFFD4B5B3BA7
:100AE0001A33C0FFFFFFFFFD6B5BDB6AFDC056657D
:100AF000722025642E2530326400454449543A233F
:100B000025316400434841494E004C494E4B205426
:100B10004F3A20253164004359434C45533A25331D
:100B20006400565245460054554E45004C4F4144D2
:100B3000005341564500434F5059004E4557200041
:100B40005041545445524E232532640023205354BF
:100B50004550533A2532640050544E2046523A25AF
:100B600032640050544E20544F3A25326400414CB8
:100B70004C2050544E3F002531642E2530336420E4
:100B800056005054524E3A2325303164002200FF63
:100B900021000102040810204080010204081020F6
:100BA0000102040810200000000023002600290094
:100BB0000404040404040404020202020202030303
:100BC000030303037F1DD82B11241FBECFEFD8E0F2
:100BD000DEBFCDBF11E0A0E0B1E0E2E6F1E602C089
:100BE00005900D92A835B107D9F724E0A8E5B1E04A
:100BF00001C01D92AF31B207E1F715E0C3EED5E0B9
:100C000004C02197FE010E94592CC23ED107C9F7AA
:100C10000E946A1E0C94A4300C940000089508955C
:100C20000895AF92BF92CF92DF92EF92FF920F930F
:100C30001F93CF93DF936C017B018B01040F151F72
:100C4000EB015E01AE18BF08C017D10759F06991DA
:100C5000D601ED91FC910190F081E02DC60109953E
:100C6000892B79F7C501DF91CF911F910F91FF90EB
:100C7000EF90DF90CF90BF90AF900895833081F0D8
:100C800028F4813099F08230A9F008958730A9F0D6
:100C90008830C9F08430B1F4809180008F7D03C02A
:100CA000809180008F7780938000089584B58F773E
:100CB00084BD089584B58F7DFBCF8091B0008F7780
:100CC0008093B00008958091B0008F7DF9CFCF93CD
:100CD000DF93282F30E0F901EC5EF94F8491F901A0
:100CE000EE56F44FD491F901E055F44FC491CC2362
:100CF000A1F081110E943E06EC2FF0E0EE0FFF1FE5
:100D0000EA55F44FA591B491EC91ED2381E090E088
:100D100009F480E0DF91CF91089580E090E0FACF70
:100D20001F93CF93DF93282F30E0F901EC5EF94F4A
:100D30008491F901EE56F44FD491F901E055F44F46
:100D4000C491CC23A9F0162F81110E943E06EC2FEE
:100D5000F0E0EE0FFF1FEC5BF94FA591B4918FB758
:100D6000F894EC91111108C0D095DE23DC938FBF6D
:100D7000DF91CF911F910895DE2BF8CFCF93DF93B2
:100D800090E0FC01EE56F44F24918055944FFC0105
:100D900084918823C9F090E0880F991FFC01E85DD9
:100DA000F94FA591B491FC01EC5BF94FC591D49139
:100DB00061110DC09FB7F8948C91209582238C937C
:100DC0008881282328839FBFDF91CF9108956230C7
:100DD00051F49FB7F8943C91822F809583238C9394
:100DE000E8812E2BEFCF8FB7F894EC912E2B2C931C
:100DF0008FBFEACF1F93CF93DF93182FEB0161E0F2
:100E00000E94BE06209739F460E0812FDF91CF91D8
:100E10001F910C949006CF3FD10511F461E0F5CFFE
:100E2000E12FF0E0EC5EF94FE491E33031F140F472
:100E3000E130B1F0E230E1F0C038D1057CF7E4CF29
:100E4000E73029F1E83059F1E430B1F780918000C2
:100E5000806280938000D0938B00C0938A0004C08E
:100E600084B5806884BDC7BDDF91CF911F9108957F
:100E700084B5806284BDC8BDF7CF80918000806852
:100E800080938000D0938900C0938800EDCF80913B
:100E9000B00080688093B000C093B300E5CF80912C
:100EA000B00080628093B000C093B400DDCF3FB744
:100EB000F89480910F0290911002A0911102B091CC
:100EC000120226B5A89B05C02F3F19F00196A11D5F
:100ED000B11D3FBFBA2FA92F982F8827BC01CD0184
:100EE000620F711D811D911D42E0660F771F881FE3
:100EF000991F4A95D1F708958F929F92AF92BF9212
:100F0000CF92DF92EF92FF924B015C010E94570754
:100F10006B017C010E9457076C197D098E099F099E
:100F2000683E734081059105A8F321E0821A91087B
:100F3000A108B10888EEC80E83E0D81EE11CF11CA0
:100F400081149104A104B10429F7FF90EF90DF9080
:100F5000CF90BF90AF909F908F9008950895EF929B
:100F6000FF920F931F93CF93DF93EC01EC80FD80F2
:100F70006E157F050CF070C057FF04C0240F351F9D
:100F800050E040E08E819F81FA01E20FF31F8E173F
:100F90009F071CF49C01241B350B121613060CF042
:100FA0005BC0922F842F8695869586958E9DD00165
:100FB0008F9DB00D11246A0F7B1FAF8DB8A1A60FB6
:100FC000B71F477049F188E0841B482F682F70E0F5
:100FD000FB01E45FF94FE491281708F063C0621B3E
:100FE00071092FEF30E002C0359527956A95E2F739
:100FF000E2230130110539F0B0F10230110561F53D
:101000008C91E82702C08C91E82BEC93941720F187
:101010002C813D81A20FB31FE92FE41BE83078F04B
:101020000230110521F58E2F9C9190959C932C8177
:101030003D81A20FB31F88508830B0F7E770EE23D0
:1010400059F0F0E0EC5FF94FE49101301105F9F04F
:1010500010F10230110519F1DF91CF911F910F911D
:10106000FF90EF900895E0958C91E823CECF81E03A
:101070000115110509F480E081959E2F8C932C8138
:101080003D81A20FB31F98509830C0F7D7CF8C91F5
:10109000E82BEC93E1CFE0958C91E823FACF8C918B
:1010A000E827F7CF0130110509F4ADCFE0F20230A7
:1010B000110509F4A5CFAE0DBF1DAECF0F931F9341
:1010C000CF93DF9377FF04C0260F371F70E060E0F7
:1010D000DC011496CD91DC91FB01E20FF31FCE17DA
:1010E000DF071CF49E01261B370B121613064CF566
:1010F000FA0157FD3796A3E0F595E795AA95E1F734
:10110000EC9FD001ED9FB00DFC9FB00D11246A0F34
:101110007B1FDC015F96ED91FC91E60FF71F477096
:10112000552781E090E001C0880F4A95EAF7482FE3
:101130000130110559F0A8F02E0F3F1F02301105A4
:10114000E1F0DF91CF911F910F9108952E0F3F1F76
:10115000E217F307B1F38191DF011197842B8C9390
:10116000F7CF80952E0F3F1FE217F30751F39191B0
:10117000DF01119798239C93F7CFE217F30709F348
:101180008191DF01119784278C93F7CF0F931F93E1
:10119000FA01DC0156964C9156974230E9F0433003
:1011A000A1F1413061F514964D915C91DA01AE1BCD
:1011B000BF0BFD01E21BF30B77FD0BC0DC011696A4
:1011C0004D915C916417750724F4AB01BF010E9437
:1011D0005E081F910F91089514964D915C91DA016C
:1011E000A61BB70BBD0161507109DC0116964D912C
:1011F0005C91DA01AE1BBF0BFD01E21BF30B77FD27
:10120000E8CFAF010E94AF07E4CF16964D915C91F5
:10121000DA01A61BB70BBD0161507109CDCF0F9349
:101220001F93FA01DC0156964C9156974230A9F073
:10123000433091F1413019F514964D915C91DA01EA
:10124000AE1BBF0BFD013197F7FD04C0AB01BF0121
:101250000E94AF071F910F91089514964D915C91D4
:10126000DA01A61BB70BBD01DC0116964D915C910E
:10127000DA01AE1BBF0BFD013197621B730BF7FD4B
:10128000E9CFDC0116964D915C91E417F50714F750
:10129000AF010E945E08DECF16964D915C91DA0197
:1012A000A61BB70BBD01621B730BCECFFC0177FDF4
:1012B00064C080859185681779070CF05EC057FD82
:1012C0005CC082859385481759070CF056C0868903
:1012D0008230B1F0833029F1813041F484819581ED
:1012E000841B950BAB01BC016150710921303105A4
:1012F00009F108F443C02230310509F463C00895B0
:1013000084819581DC01A61BB70BBD016150710979
:1013100086819781DC01A41BB50BAD0141505109B9
:10132000E5CF86819781861B970BBA01AC014150AE
:101330005109DCCFCA0157FD0796A3E09595879523
:10134000AA95E1F7A481B5818A9F90018B9F300D0A
:101350009A9F300D1124620F731F078CF0A1E02DAE
:10136000E60FF71F4770552721E030E001C0220F3C
:101370004A95EAF78081822B80830895CA0157FD40
:10138000079633E0959587953A95E1F7A481B58165
:101390008A9F90018B9F300D9A9F300D1124620F10
:1013A000731F078CF0A1E02DE60FF71F477055273C
:1013B00081E090E001C0880F4A95EAF7809590811E
:1013C0008923DACFCA0157FD079623E095958795C3
:1013D0002A95E1F7A481B5818A9F90018B9F300DFA
:1013E0009A9F300D1124620F731F078CF0A1E02D1E
:1013F000E60FF71F4770552721E030E001C0220FAC
:101400004A95EAF780818227B7CF08958EBD000004
:101410000DB407FEFDCF8EB508958CBD9DBD08951A
:101420000895FC016370668B8481958126813781E4
:10143000613039F0633029F09187808733872287C4
:101440000895318720879387828708952F923F924E
:101450004F925F926F927F928F929F92AF92BF92C4
:10146000CF92DF92EF92FF920F931F93CF93DF9370
:10147000CDB7DEB76A970FB6F894DEBF0FBECDBF0B
:101480009A8F898F7A8369834A01D22E18870F83B6
:101490003701BC2CDC0159962D913C915A972115AE
:1014A000310509F015C118968D919C91199768170F
:1014B00079070CF0D7C11A968D919C91481759075E
:1014C0000CF0D0C14C2C512CB6E0CB9E600D711DA0
:1014D00011247C876B87161617060CF0C3C1EA2D02
:1014E000F0E0FA87E98793E0EE0FFF1F9A95E1F7A6
:1014F000F88BEF87CF01840F951F181619060CF093
:10150000B1C1A98DBA8D58968C91811104C0BFEAE2
:10151000BD1508F4D394A98DBA8DED91FC91119766
:101520000284F385E02DCD010995B5E0DB9EC00175
:101530001124E981FA81FC83EB83312C212C9C015D
:101540002C5F3E4F388F2F8B4A2D50E05E8B4D8B9A
:10155000EF89F88DE20DF31D44919E828D82D12C8E
:10156000C12C69817A81620D731D7A8B698B842FFE
:1015700090E09C8B8B8BE98DFA8DA081B18140FF2F
:1015800082C0F1E0BF126FC0AF126DC01C96ED912A
:10159000FC912F813885A4014C0D5D1D69897A89E4
:1015A000898D9A8D0995EB89FC89F595E7954E2FE4
:1015B0005FEFC51AD50A6D817E818D899E89680F7E
:1015C000791F7E836D8398E0C916D10481F6AFEF51
:1015D0002A1A3A0AEB81FC81E40DF51DFC83EB83AA
:1015E000F5E02F16310409F0B3CF2F813885261589
:1015F0003705B9F0A98DBA8DED91FC91B1E0BB1220
:1016000057C0AB1255C069817A816B5F7F4F0088EC
:10161000F189E02D830128E030E0A401898D9A8DC5
:101620000995A98DBA8DED91FC9111970688F789DE
:10163000E02DCD016A960FB6F894DEBF0FBECDBF88
:10164000DF91CF911F910F91FF90EF90DF90CF909E
:10165000BF90AF909F908F907F906F905F904F90D2
:101660003F902F9009941E96ED91FC91EF80F884A5
:1016700009851A8592014D815E816B817C81898DFE
:101680009A8D099590CF2F8138852615370509F455
:101690008ACF31E0B31207C0A31205C01C96ED91AA
:1016A000FC91930178CF1E96ED91FC917301E0CFF0
:1016B0006B857C85641975090684F785E02D7301B7
:1016C0000F8518899201A401898D9A8D0995A9CF5A
:1016D000F90134969491329745915491D91AB7E013
:1016E000DB9E400D511D1124F901259134913C8B55
:1016F0002B8BFA0125903490FA0132967490319632
:101700003491398B329664903196449041E04C1577
:1017100018F04A1508F07FC0662D062C000C770BD8
:101720007C836B83842D042C000C990B9E838D830A
:10173000A98DBA8DED91FC9111970284F385E02D6E
:10174000CD010995512CD12CC12CEA2DF0E0FA875E
:10175000E9872B2D30E03C872B87A401440D511DD8
:1017600047FC5A95588F4F8B69817A81660D711DA0
:1017700067FC7A957E876D877989C71608F051CF07
:101780002C2D30E04D815E81420F531FA985BA8513
:101790004A9FC0014B9F900D5A9F900D1124FC0150
:1017A000E80DF91DF88BEF87852D612C4F89588D39
:1017B000420F531F5E8B4D8B671408F050C04424BA
:1017C0004394480E877041F4C1010196EB89FC896E
:1017D000E20DF31DD4901C01D7FE19C0A98DBA8D5E
:1017E000ED91FC91662D70E0B1E0BB1219C0AB1217
:1017F00017C02D853E85620F731F0484F585E02D8B
:101800002F8138854D895E89898D9A8D0995DD0CEA
:101810006394842DD1CF1E821D821C821B8288CFAF
:101820004B815C81640F751FAB85BC856A9FC001CD
:101830006B9F900D7A9F900D112469817A81680FBA
:10184000791F0684F785E02DEF80F88409851A85D5
:101850009D014F855889898D9A8D0995D8CF570C50
:10186000C3948ACF6A960FB6F894DEBF0FBECDBF81
:10187000DF91CF911F910F91FF90EF90DF90CF906C
:10188000BF90AF909F908F907F906F905F904F90A0
:101890003F902F9008958F929F92AF92CF92EF92A8
:1018A000FF920F931F93CF93DF93EC01262F898D27
:1018B0009A8D009709F051C06A30D1F41D861C86BC
:1018C0008D8948E0849F900111248E859F85820F29
:1018D000931F9F878E8781E090E0DF91CF911F91CA
:1018E0000F91FF90EF90CF90AF909F908F900895C1
:1018F0006D3089F3CC88AD888F898823C1F08C85C1
:101900009D8536E0C39E800D911D11244885598523
:101910004817590764F44E855F851D861C8638E09C
:10192000A39EC0011124840F951F9F878E87EA888C
:10193000FB88088919894E855F856C857D85CE0178
:101940000E94260A2C898C859D8546E0249F800D67
:10195000911D11249D878C87BECF6A3069F41D8646
:101960001C86FC013896E4912D898E859F85E29F27
:10197000800D911D1124ADCF6D3009F4ACCFFC0169
:1019800034963491631708F4A6CF3296E491E617A3
:1019900008F4A1CFFC01329685909490462F431B0A
:1019A000342F47E0349F800C911C1124F4013296AF
:1019B00034913196E4913323A9F1EE2399F1CC8847
:1019C000F4013596E491AD884F89442301F10E2E40
:1019D000000CFF0BE30FF11DCE9EA001CF9E500D1A
:1019E00011246C857D85460F571F6885798564179E
:1019F00075076CF44E855F851D861C86FC01389644
:101A0000E491AE9E400D511D11245F874E87EA88F8
:101A1000FB88088919894E855F856C857D85CE0197
:101A20000E94260AF4013496E4912C898C859D85C8
:101A3000E29F800D911D11248DCF6F927F928F9226
:101A40009F92AF92BF92CF92DF92EF92FF920F934D
:101A50001F93CF93DF93EC016B015A0139014801C9
:101A6000E881F9810284F385E02D0995E881F98107
:101A70000288F389E02D87019301A501B601CE010B
:101A80000995A501480D591D41505109E881F98179
:101A90000288F389E02D9301B601CE010995E88112
:101AA000F9810088F189E02D9401A501B601CE01EC
:101AB0000995C60CD71CB60161507109E881F981FE
:101AC0000088F189E02D9401A501CE010995E881F6
:101AD000F9810688F789E02DCE01DF91CF911F9122
:101AE0000F91FF90EF90DF90CF90BF90AF909F90BD
:101AF0008F907F906F9009946F927F928F929F92B8
:101B0000AF92BF92CF92DF92EF92FF920F931F930B
:101B1000CF93DF935C01EB016A0149013801870132
:101B2000DC01ED91FC916217730719F564167506D7
:101B30002CF0962D872D3A01C92ED82E9601261904
:101B400037092F5F3F4F048CF58DE02DA301BE01B7
:101B5000C5010995DF91CF911F910F91FF90EF90F3
:101B6000DF90CF90BF90AF909F908F907F906F90BD
:101B700008954615570591F42617370724F0892D47
:101B80004B01C22FD82F9E01281939092F5F3F4FD3
:101B9000068CF78DE02DA601B401DACF0284F3851F
:101BA000E02D0995D501ED91FC910488F589E02D92
:101BB00083019401A601BE01C5010995D501ED91EE
:101BC000FC910688F789E02DC501DF91CF911F9127
:101BD0000F91FF90EF90DF90CF90BF90AF909F90CC
:101BE0008F907F906F900994EF92FF920F931F93C5
:101BF000DC011A960D911C911B9718962D913C9122
:101C00001997ED91FC9100A0F1A1E02D7B0150E02E
:101C100040E070E060E009951F910F91FF90EF9018
:101C200008954F925F926F927F928F929F92AF92A0
:101C3000BF92CF92DF92EF92FF920F931F93CF93B9
:101C4000DF936C012B015A0139014801DC01ED9150
:101C5000FC910284F385E02D0995E201640C751C6A
:101C6000D601ED91FC91C615D7055CF40088F18989
:101C7000E02D87019401A501BE01C60109952196B9
:101C8000EFCF0688F789E02DC601DF91CF911F9134
:101C90000F91FF90EF90DF90CF90BF90AF909F900B
:101CA0008F907F906F905F904F9009948F929F924A
:101CB000AF92BF92CF92DF92EF92FF920F931F935A
:101CC000CF93DF93EC015B014A016901E881F9815F
:101CD0000284F385E02D099595012C0D3D1D2150C1
:101CE0003109E881F9810488F589E02D78018401C2
:101CF000A401B501CE010995E881F9810688F7892B
:101D0000E02DCE01DF91CF911F910F91FF90EF90C9
:101D1000DF90CF90BF90AF909F908F9009948F925B
:101D20009F92AF92BF92CF92DF92EF92FF920F936A
:101D30001F93CF93DF93EC015B014A0169017801A6
:101D4000E881F9810284F385E02D0995C80CD91C3E
:101D5000860101501109E881F9810488F589E02D97
:101D60009501A401B501CE010995E881F9810688A4
:101D7000F789E02DCE01DF91CF911F910F91FF9058
:101D8000EF90DF90CF90BF90AF909F908F9009948D
:101D9000EF92FF920F931F93DC01ED91FC9100A055
:101DA000F1A1E02D09951F910F91FF90EF900895FB
:101DB0000F931F93DC01ED91FC91068CF78DE02DC4
:101DC00009951F910F9108950F931F93DC01ED91D9
:101DD000FC91048CF58DE02D09951F910F910895CC
:101DE000DC01ED91FC910084F185E02D09942F92A6
:101DF0003F924F925F926F927F928F929F92AF929B
:101E0000BF92CF92DF92EF92FF920F931F93CF93E7
:101E1000DF937C016B01EA0181E090E05C01A41A90
:101E2000B50A66247724641A750A660C771C10E0DC
:101E300000E088248394912C822F8470582E822F66
:101E40008270482E822F8870382E2170222E0C1717
:101E50001D070CF079C0B7FC06C0219782E0680E20
:101E6000711CA60CB71C0F5F1F4F82E0880E911CDF
:101E7000A80CB91C5520C1F021E030E0AE014C0D9A
:101E80005D1DB701600F711F8BED93E00E94F00E96
:101E900021E030E0A601400F511FBE016E0D7F1DF5
:101EA0008BED93E00E94F00E4420C1F021E030E081
:101EB000A6014C1B5D0BB701600F711F8BED93E00A
:101EC0000E94F00E21E030E0A601401B510BBE0144
:101ED0006E0D7F1D8BED93E00E94F00E3320C1F05C
:101EE00021E030E0A601400F511FB7016C1B7D0BB4
:101EF0008BED93E00E94F00E21E030E0AE014C0D3E
:101F00005D1DB701601B710B8BED93E00E94F00E1D
:101F1000222009F49CCF21E030E0A601401B510BA8
:101F2000B7016C1B7D0B8BED93E00E94F00E21E05E
:101F300030E0A6014C1B5D0BB701601B710B8BEDF4
:101F400093E00E94F00E83CFDF91CF911F910F910C
:101F5000FF90EF90DF90CF90BF90AF909F908F90C9
:101F60007F906F905F904F903F902F9008954F9289
:101F70005F926F927F928F929F92AF92BF92CF9219
:101F8000DF92EF92FF920F931F93CF93DF93EC01B9
:101F90007B013A0169014A0186E0881A91085E01D5
:101FA00083E0A80EB11C01E010E09401AB01B50183
:101FB0008BED93E00E94D80E26014E0C5F1CA2010F
:101FC000415051099401B5018BED93E00E94D80E68
:101FD00086E0C81AD10883E0E80EF11C9601A7013B
:101FE000BE018BED93E00E94E40EC60DD71DBE012D
:101FF000615071099601A7018BED93E00E94E40EF8
:1020000021E043E050E0B701C5010E94F70E24979C
:1020100022E043E050E0B701CE010E94F70E84E0D9
:10202000481A510824E043E050E0B201CE010E947A
:10203000F70E28E043E050E0B201C501DF91CF91F7
:102040001F910F91FF90EF90DF90CF90BF90AF90D6
:102050009F908F907F906F905F904F900C94F70EB1
:102060003F924F925F926F927F928F929F92AF9228
:10207000BF92CF92DF92EF92FF920F931F93CF9375
:10208000DF935C017B014A016901390187E0680E39
:10209000711C93E0759467949A95E1F72B01400EBB
:1020A000511E10E000E0312CD0E0C0E0CE0187707E
:1020B0009927330C892B59F4FE0183E0F595E795B8
:1020C0008A95E1F7E00FF11FE80DF91D349037FE16
:1020D0000AC021E030E0A701B5016C0F7D1F8BED38
:1020E00093E00E94F00E2196CC16DD06F9F68FEFF4
:1020F000E81AF80A060D171DE414F504A9F6DF9195
:10210000CF911F910F91FF90EF90DF90CF90BF90F4
:10211000AF909F908F907F906F905F904F903F9087
:1021200008952F923F924F925F926F927F928F927B
:102130009F92AF92BF92CF92DF92EF92FF920F9356
:102140001F93CF93DF9300D000D000D0CDB7DEB780
:102150003C016A013E832D83FC82EB825801A41A64
:10216000B50AB7FE03C0B194A194B1088D809E80DA
:10217000861A970A97FE03C09194819491088A1455
:102180009B045CF0902F812F0D811E819D838E8397
:102190009C2D8D2D6B01692F782F0C151D055CF082
:1021A0009D818E817E836D83692F782F902F812F63
:1021B0008601C92ED82E1601201A310A2B012D8135
:1021C0003E81421A530A57FE03C05194419451086C
:1021D000710137FE03C03FEFE31AF30AF594E79469
:1021E0008D819E81861797075CF5A1E0B0E0BA83E8
:1021F000A983C016D1064CF1D301ED91FC91048462
:10220000F585E02D2B813C81A8016D817E818A14AA
:102210009B041CF04D815E81B801C3010995E4184F
:10222000F508F7FE0AC02D813E8189819A81280F29
:10223000391F3E832D83E20CF31C0F5F1F4FD9CF54
:102240002FEF3FEF3A832983D4CF26960FB6F89429
:10225000DEBF0FBECDBFDF91CF911F910F91FF90D9
:10226000EF90DF90CF90BF90AF909F908F907F9036
:102270006F905F904F903F902F9008950895209118
:10228000C401260F3327331F21323105ECF420918E
:10229000E801FC0190E080E0243069F082E00895DC
:1022A000A091C4012191AC014C555E4FA40FB52FF4
:1022B000B11D2C930196861798F38091C401680F85
:1022C0006093C40180E0089581E008951092E801D0
:1022D00081E08093EA011092E90161E082E10E94CD
:1022E000900661E083E10E949006E9EBF0E08081D6
:1022F0008E7F808380818D7F808388E48093B80087
:1023000085E48093BC000895CF93DF9391E0909390
:10231000A3018823B9F0C091B800D091BA00809190
:10232000BC008A7B8093BC0060E082E10E94900642
:1023300060E083E10E9490060E946611D093BA008B
:10234000C093B800DF91CF910895E0911902809178
:102350001802E81730F4F0E0E258FE4F808190E078
:1023600008958FEF9FEF08959091190280911802C0
:102370002FEF3FEF981748F4E92FF0E0E258FE4FB7
:10238000208130E09F5F90931902C90108958091E8
:10239000180290911902891B990B0895CF92DF9230
:1023A000EF92FF920F931F93CF93DF937C01CB01AA
:1023B0008A012091BE03222389F0EB016B01C40E38
:1023C000D51ECC15DD0569F06991D701ED91FC9121
:1023D0000190F081E02DC7010995F3CF642F0E9491
:1023E0003F11C801DF91CF911F910F91FF90EF90A6
:1023F000DF90CF900895CF93DF931F92CDB7DEB7D4
:1024000069832091BE032223F9F02091BB0320327F
:1024100058F021E030E0FC013383228390E080E03B
:102420000F90DF91CF9108958091BC03E82FF0E0E9
:10243000E25AFE4F998190838F5F8093BC03809313
:10244000BB0381E090E0ECCF61E0CE0101960E94F9
:102450003F11F7CFCF92DF92EF92FF920F931F932E
:10246000CF93DF93D091BB0381E0D13208F09CC0C1
:10247000C091BD030E9457076B017C018091E80168
:1024800081116CC082E08093E80181E08093EA01D1
:102490008FEF8093E70110920C02D0930B02AEE510
:1024A000B1E0EBEEF1E080E0D8138DC010920D02A8
:1024B00080910D02CC0FC82BC0930D028091E901D1
:1024C000813009F084C01092E9010E9457076B0126
:1024D0007C0180910D028093BB0080919F019091BF
:1024E000A001A091A101B091A201892B8A2B8B2B75
:1024F000A1F00E94570700919F011091A001209127
:10250000A1013091A2016C197D098E099F0906175E
:1025100017072807390708F442C08091BC0083FDE3
:10252000D8CF85EC8093BC000E9457076B017C01DB
:102530008091E801823009F44CC08091E7018F3F1F
:1025400009F469C08091E701803209F466C0809186
:10255000E701803309F463C084E026C080919F01C5
:102560009091A001A091A101B091A201892B8A2B89
:102570008B2B09F483CF0E94570700919F01109184
:10258000A0012091A1013091A2016C197D098E0951
:102590009F09061717072807390708F06FCF8091A2
:1025A0009E010E94841185E01092BC031092BB032F
:1025B0001092BE03DF91CF911F910F91FF90EF908A
:1025C000DF90CF9008959D9191938F5F6DCF85EEB1
:1025D000A9CF80919F019091A001A091A101B091FC
:1025E000A201892B8A2B8B2B09F4A2CF0E945707BB
:1025F00000919F011091A0012091A1013091A201B1
:102600006C197D098E099F090617170728073907D6
:1026100008F08ECFC4CF80E0C7CF82E0C5CF83E083
:10262000C3CFCF93C82F81E08093BE0380E6809311
:10263000BD031092BC031092BB03692F70E06F7052
:1026400077278FEB93E00E94FB116C2F8FEB93E0C9
:102650000E94FB118FEB93E0CF910C942A12EF9222
:10266000FF920F931F93CF93DF937C01C62F80912E
:10267000F8039091F903009709F459C02091FC03E5
:1026800031E03093BE032093BD031092BC0310923F
:10269000BB03DC01ED91FC910190F081E02D60E045
:1026A00009958701EE24E394F12CD1E0C15080918B
:1026B000F8039091F903CF3F91F1B0E2EB16F104EA
:1026C000D8F00E942A128091F8039091F90320918A
:1026D000FC03D093BE032093BD031092BC03109261
:1026E000BB03DC01ED91FC910190F081E02D60E0F5
:1026F0000995EE24E394F12C8091F8039091F9036D
:10270000F8016491DC01ED91FC910190F081E02DE4
:102710000995BFEFEB1AFB0A0F5F1F4FC7CFDF9181
:10272000CF911F910F91FF90EF900C942A12E0919E
:102730000804F0910904908180910E04809589230A
:1027400080838701C15008F438C0F801849120913A
:10275000F6033091F703232B29F00E94060A0F5F3E
:102760001F4FF0CF28E030E040E8E0910404F09102
:10277000050490910C04582F5423D9F05081952BC7
:102780009083E0910604F0910704908150910D042C
:10279000952B9083E0910604F0910704508190916D
:1027A0000D04909595239083469521503109E9F6C3
:1027B000D6CF508190959523E3CFDF91CF911F9194
:1027C0000F91FF90EF9008951F93CF93DF93EC014B
:1027D0008D8D9E8D009721F1162F29A131E0309328
:1027E000BE032093BD031092BC031092BB03DC0117
:1027F000ED91FC910190F081E02D60E009958D8DC7
:102800009E8DDC01ED91FC910190F081E02D612F16
:1028100009958D8D9E8DDF91CF911F910C942A1279
:10282000ADA5BEA59C918BA9809589238C938B8D9A
:102830009C8D892B31F0862FDF91CF911F910C94C5
:10284000060A28E030E080E8A9A5BAA599A9462F94
:102850004823C1F04C91942B9C93ABA5BCA59C91B3
:102860004AA9942B9C93ABA5BCA54C919AA9909591
:1028700094239C9386952150310931F7DF91CF91B4
:102880001F9108954C9190959423E6CFDF92EF929B
:10289000FF920F931F93CF93DF938091F803909152
:1028A000F903892B09F498C0209110043091110488
:1028B000409112045091130460E074E284EF90E0C0
:1028C0000E94182C2051310941095109569547950C
:1028D000379527952093B80065E08DE89BE00E942E
:1028E0002F136091DF0361508BED93E00E94E4139E
:1028F0002091E1033091E203C901079697FD079605
:1029000033E0959587953A95E1F72091DF03309173
:10291000E003829F8001839F100D929F100D112470
:10292000C091FA03D091FB038091F8039091F903D1
:102930000C0F1D1F009709F48FC02091FC0331E09C
:102940003093BE032093BD031092BC031092BB03CF
:10295000DC01ED91FC910190F081E02D60E409959E
:10296000EE24E394F12CDD24D3948091F80390912C
:10297000F9030C171D0709F446C0B0E2EB16F10489
:10298000D8F00E942A128091F8039091F9032091C7
:10299000FC03D092BE032093BD031092BC0310929F
:1029A000BB03DC01ED91FC910190F081E02D60E42E
:1029B0000995EE24E394F12C8091F8039091F903AA
:1029C0006991DC01ED91FC910190F081E02D099578
:1029D000BFEFEB1AFB0AC9CF8091F6039091F70382
:1029E000892B31F08091190490911A040E940D0AEC
:1029F000E0910A04F0910B04908180910F0480957E
:102A00008923808369CF0E942A128091F8039091D4
:102A1000F903892B09F461C0209114043091150445
:102A2000409116045091170460E074E284EF90E046
:102A30000E94182C2051310941095109569547959A
:102A4000379527952093B800DF91CF911F910F9173
:102A5000FF90EF90DF900895E0910804F091090451
:102A6000808190910E04892B80830C171D0769F2D9
:102A700089912091F6033091F703232B19F00E94DE
:102A8000060AF3CF28E030E040E8E0910404F0913A
:102A9000050490910C04582F5423D9F05081952BA4
:102AA0009083E0910604F0910704908150910D0409
:102AB000952B9083E0910604F0910704508190914A
:102AC0000D04909595239083469521503109E9F6A0
:102AD000CCCF508190959523E3CFE0910A04F091FB
:102AE0000B04808190910F04892B8083ADCF1F93BD
:102AF000CF93DF93EC01162F8D8D9E8D892BB1F135
:102B00002DA93EA94FA958AD60E074E284EF90E092
:102B10000E94182C205131094109510956954795B9
:102B2000379527952093B80066EA111167EACE0120
:102B30000E94E4138D8D9E8D892B41F129AD3AAD14
:102B40004BAD5CAD60E074E284EF90E00E94182C25
:102B500020513109410951095695479537952795D7
:102B60002093B800DF91CF911F9108958B8D9C8D9C
:102B7000892B21F08EAD9FAD0E940D0AEFA5F8A91B
:102B800090818CA9809589238083CECFEFA5F8A969
:102B900080819CA9892B8083E5CF90E080E0089517
:102BA0000F931F93CF93DF93880F991F8C01085ABF
:102BB0001E4FF801C081D181CC0FDD1F862F0E94EE
:102BC00067069E013E6F282B392BF8013183208345
:102BD00081E021153F4F09F080E0DF91CF911F91F7
:102BE0000F910895DC01ED91FD918081ED91FD91B2
:102BF0009081ED91FD916C9163708E2309F064607A
:102C00009F2309F06860EFE0F6E1E60FF11D65959E
:102C100065956D936D917D918D919D91099423C0E2
:102C20001AC012C016C010C01EC009C014C013C004
:102C300006C019C009C00DC007C00DC014C0625045
:102C40007040804090400BC0615070408040904088
:102C500006C06E5F01C06F5F7F4F8F4F9F4F9E9387
:102C60008E937E936E9308958091CB039091CC03C5
:102C70000C94F2158091CD039091CE030C94F21533
:102C8000FC0101900020E9F73197AF01481B590B77
:102C9000BC018BED93E00C941106CF93DF93EC0114
:102CA0002BE030E04FE250E062E070E080E590E041
:102CB0000E94B70FEBEDF3E083E590E09587848702
:102CC00084E090E097878687CE01DF91CF910C94C6
:102CD00040162091E1033091E203C901079697FD68
:102CE000079623E0959587952A95E1F72091DF03D4
:102CF0003091E003829FA001839F500D929F500D61
:102D0000112470E060E08091FA039091FB030C9431
:102D1000BE2DCF92DF92EF92FF920F931F93CF932E
:102D2000DF9300D01F92CDB7DEB7F82EE92ECB018E
:102D30006CE070E00E94042CD62EC72EBC01660FFA
:102D4000771F680F791F60527F4F8E010F5F1F4FF3
:102D5000C8010E94E72BCF92DF921F930F938EE45E
:102D600091E09F938F93EF92FF920E94CC2D0FB62C
:102D7000F894DEBF0FBECDBF0F900F900F90DF9184
:102D8000CF911F910F91FF90EF90DF90CF9008951A
:102D9000CF92DF92EF92FF920F931F93CF93DF9327
:102DA000EC017B01623071050CF456C023E130E088
:102DB0004FE250E06EE070E080E590E00E94B70FD7
:102DC00068ED70E084E492E00E94E72BDF93CF93FC
:102DD00004E412E01F930F93C4E3D2E0DF93CF9398
:102DE0000E94CC2D83E5C82ED12CD092E803C0924E
:102DF000E70380E190E09093EA038093E903CE013A
:102E00000E94401660ED70E0C8010E94E72BFF921F
:102E1000EF921F930F93DF93CF930E94CC2DD0920C
:102E2000E803C092E70388E190E09093EA0380937F
:102E3000E9038DB79EB70C960FB6F8949EBF0FBEF0
:102E40008DBFCE01DF91CF911F910F91FF90EF9039
:102E5000DF90CF900C944016F12CE12C03E110E0B0
:102E60002FE230E04EE050E060E570E08BED93E063
:102E70000E94110EDF91CF911F910F91FF90EF9063
:102E8000DF90CF900895CF930E946916EBEDF3E0A9
:102E9000C1E0C48BC58B2EE330E04CE450E062E02F
:102EA00070E082E090E00E94B70F68EC70E084E48C
:102EB00092E00E94E72B84E492E00E944D16C093BA
:102EC000B603CF910895CF930E946916EBEDF3E01E
:102ED000C1E0C48BC58B81E090E0918B808B138A1D
:102EE000128A2EE330E04CE450E062E070E082E0D1
:102EF00090E00E94B70F67E770E084E492E00E94E0
:102F0000E72B809124029091250201969F938F9345
:102F100084E492E09F938F9384E392E09F938F9356
:102F20000E94CC2D84E392E00E944D16C093B6031C
:102F30000F900F900F900F900F900F90CF910895DA
:102F4000CF92DF92EF92FF920F931F93CF93DF9375
:102F5000CDB7DEB764970FB6F894DEBF0FBECDBF16
:102F60008C018091540190915501A0915601B0912E
:102F70005701898B9A8BAB8BBC8B68E670E0CE01D6
:102F800001966C010E94E72BE0912602F091270246
:102F900024E0EE0FFF1F2A95E1F7E00FF11FEE0F7F
:102FA000FF1FE65AFD4F608171816F737727CE0155
:102FB00041967C016115710521F0615071090E94F3
:102FC0008916E0912602F091270284E0EE0FFF1FA0
:102FD0008A95E1F7E00FF11FEE0FFF1FE65AFD4F54
:102FE000808191813DE286FD33E52DE287FD21E47C
:102FF00090FD3EC08DE21F923F931F922F931F9230
:103000008F93FF92EF920F5F1F4F1F930F93DF92EB
:10301000CF9284E392E09F938F930E94CC2D83E024
:1030200090E09093E8038093E70389E190E0909328
:10303000EA038093E90382E08093EF038093F00337
:1030400084E392E00E9440160FB6F894DEBF0FBEF4
:10305000CDBF64960FB6F894DEBF0FBECDBFDF9133
:10306000CF911F910F91FF90EF90DF90CF90089537
:1030700084E5C1CFCF930E946916EBEDF3E0C1E088
:10308000C48BC58B81E090E0918B808B138A128A70
:1030900024E130E04FE750E066E170E090E080E04E
:1030A0000E94B70F6AEF7AE084E492E00E94E72B77
:1030B000809127028F93809126028F9384E492E07F
:1030C0009F938F9384E392E09F938F930E94CC2DE4
:1030D00084E392E00E944D16809124029091250293
:1030E0000E94A017C093B6030F900F900F900F90FF
:1030F0000F900F90CF910895AF92BF92CF92DF9231
:10310000EF92FF920F931F93CF93DF93CDB7DEB76C
:1031100064970FB6F894DEBF0FBECDBF5C018091FF
:10312000540190915501A0915601B0915701898B9E
:103130009A8BAB8BBC8B68E670E0CE0101966C017C
:103140000E94E72B6091580270915902C5010397C4
:103150002091B8033091B903820F931F860F971FF8
:103160000E94042C8C01E091B203F091B30334E08F
:10317000EE0FFF1F3A95E1F7E80FF91FEE0FFF1F63
:10318000E65AFD4F608171816F737727CE014196BA
:103190007C016115710521F0615071090E94891649
:1031A0000115110551F41092EC031092EB0381E02C
:1031B00090E09093EE038093ED0385E090E0909390
:1031C000E8038093E70383E0AA0CBB1C8A95E1F730
:1031D00095E0A90EB11CB092EA03A092E903E09138
:1031E000B203F091B30394E0EE0FFF1F9A95E1F75D
:1031F000E00FF11FEE0FFF1FE65AFD4F8081918116
:103200003DE286FD33E52DE287FD21E490FD39C0E6
:103210008DE21F923F931F922F931F928F93FF92E5
:10322000EF920F5F1F4F1F930F93DF92CF9284E3B4
:1032300092E09F938F930E94CC2D84E392E00E94B2
:10324000401681E090E09093EC038093EB031092A2
:10325000EE031092ED030FB6F894DEBF0FBECDBFA4
:1032600064960FB6F894DEBF0FBECDBFDF91CF914D
:103270001F910F91FF90EF90DF90CF90BF90AF9094
:10328000089584E5C6CFCF930E946916EBEDF3E075
:10329000C1E0C48BC58B81E090E0918B808B138A59
:1032A000128A2EE330E04CE450E062E070E082E00D
:1032B00090E00E94B70F62E87BE084E492E00E9415
:1032C000E72B8091B3038F938091B2038F9384E4B3
:1032D00092E09F938F9384E392E09F938F930E9459
:1032E000CC2D84E392E00E944D16609154027091BF
:1032F0005502809156029091570201960E94C8167D
:10330000C093B6030F900F900F900F900F900F90F7
:10331000CF9108950E94B92D85ED8093BC008091D6
:103320009F019091A001A091A101B091A2010796E7
:10333000A11DB11D23E0B695A795979587952A9570
:10334000D1F72091BC0024FD03C01092E80108953C
:1033500040919F015091A0016091A1017091A20143
:10336000452B462B472B69F30097A105B10541F08A
:1033700025E32A95F1F700000197A109B109E1CFF2
:1033800080919E010C948411FF920F931F93CF9311
:10339000DF930AE512E0D0E0C0E0F801F1908F0180
:1033A000CE010E94EE2BF81621F06F2DCE010E9467
:1033B000F62B2196C835F1E0DF0779F7DF91CF9141
:1033C0001F910F91FF900895EF92FF920F931F931B
:1033D000CF93DF930AE512E07801D0E0C0E0CE01A0
:1033E0000E94EE2BF70181937F012196C835F1E011
:1033F000DF07A9F78091B0039091B1038334904324
:1034000021F1EAE9F3E08FE0819330E020E0D90197
:10341000AA0FBB1FA00FB11F1D921C922F5F3F4F21
:1034200020313105A1F71186805F005E1F4F8F3A72
:1034300059F788E893E19093AF038093AE0383E458
:1034400090E39093B1038093B003DF91CF911F91EC
:103450000F91FF90EF900895CF92DF92EF92FF923D
:103460000F931F93CF93DF93CDB7DEB766970FB659
:10347000F894DEBF0FBECDBF8C0120913202309197
:10348000330221153105B9F080911E0290911F027F
:10349000820F931F8530910514F084E090E097FF30
:1034A00002C090E080E090931F0280931E02109271
:1034B000330210923202101611067CF58AE090E079
:1034C0009093E8038093E70398012F5F3F4F4AE012
:1034D000429FC001439F900D112405969093EA03EB
:1034E0008093E90381E08093EF038093F0036DEB19
:1034F00070E0CE0101960E94E72B0230110509F41D
:10350000C8C0FCF401151105B9F10130110509F429
:103510007DC0053011050CF561C086E190E0909307
:10352000E8038093E70385E090E09093EA038093BB
:10353000E90382E08093EF038093F00369EB70E08E
:10354000D8CF0430110509F403C10CF4D2C0053002
:103550001105F9F681E08093B60366960FB6F894EC
:10356000DEBF0FBECDBFDF91CF911F910F91FF90B6
:10357000EF90DF90CF9008958091240290912502E2
:10358000A091B203B091B30324E0AA0FBB1F2A9508
:10359000E1F7A80FB91FAA0FBB1FA65ABD4F2D9167
:1035A0003C912F733327232B51F1E0912602F091A8
:1035B0002702A4E0EE0FFF1FAA95E1F7E80FF91F1D
:1035C000EE0FFF1FE65AFD4F608171816F73772701
:1035D0006150710984E392E00E94891680911E0275
:1035E00090911F028017910709F0CFC080912C02A3
:1035F0008111CBC0CE0101960E944016AECF64E58A
:1036000071E084E392E00E94C52DE8CF6FEA70E09C
:1036100084E492E00E94E72B7E018DE0E80EF11C2D
:103620006BEA70E0C7010E94E72B6E0182E1C80ED1
:10363000D11C67EA70E0C6010E94E72BE0912602E8
:10364000F091270264E0EE0FFF1F6A95E1F7809189
:10365000240290912502E80FF91FEE0FFF1FE65A92
:10366000FD4F8081918190FD42C0C6019F938F9351
:1036700084E492E09F938F9384E392E09F938F93EF
:103680000E94CC2D0F900F900F900F900F900F90E5
:10369000A5CF6DE970E084E492E00E94E72B7E0103
:1036A0008DE0E80EF11C69E970E0C7010E94E72B8C
:1036B0006E0182E1C80ED11C65E970E0C6010E946E
:1036C000E72BE0912602F091270244E0EE0FFF1F66
:1036D0004A95E1F78091240290912502E80FF91FA5
:1036E000EE0FFF1FE65AFD4F808187FFBECFC70157
:1036F000BDCF6BE870E084E492E00E94E72B7E018E
:103700008DE0E80EF11C69E970E0C7010E94E72B2B
:103710006E0182E1C80ED11C65E970E0C6010E940D
:10372000E72BE0912602F091270224E0EE0FFF1F25
:103730002A95E1F78091240290912502E80FF91F64
:10374000EE0FFF1FE65AFD4F808186FDD0CF8DCF53
:1037500061E870E084E492E00E94E72BE0912602A9
:10376000F091270284E0EE0FFF1F8A95E1F7809128
:10377000240290912502E80FF91FEE0FFF1FE65A71
:10378000FD4F818186951F9272CF84E392E034CF02
:103790001F920F920FB60F9211242F933F938F9386
:1037A0009F93AF93BF938091280290912902A0919B
:1037B0002A02B0912B0230910E0223E0230F2D3705
:1037C00058F50196A11DB11D20930E028093280289
:1037D00090932902A0932A02B0932B0280910F02AA
:1037E00090911002A0911102B09112020196A11DB8
:1037F000B11D80930F0290931002A0931102B09319
:103800001202BF91AF919F918F913F912F910F9095
:103810000FBE0F901F90189526E8230F0296A11D4A
:10382000B11DD2CF1F920F920FB60F9211242F937A
:103830003F934F935F936F937F938F939F93AF9338
:10384000BF93EF93FF93E0910801F091090109956F
:10385000FF91EF91BF91AF919F918F917F916F9168
:103860005F914F913F912F910F900FBE0F901F903E
:1038700018951F920F920FB60F9211242F933F931A
:103880004F935F936F937F938F939F93AF93BF9368
:10389000EF93FF93E0910601F09107010995FF91E5
:1038A000EF91BF91AF919F918F917F916F915F91B8
:1038B0004F913F912F910F900FBE0F901F90189531
:1038C0001F920F920FB60F9211242F933F934F9395
:1038D0005F936F937F938F939F93AF93BF93EF9378
:1038E000FF938091B900887F803609F44AC0F0F5D3
:1038F000883209F4A7C018F5803109F49BC0B8F4E8
:10390000882309F4F9C0883009F494C0FF91EF913D
:10391000BF91AF919F918F917F916F915F914F91E7
:103920003F912F910F900FBE0F901F9018958831E7
:1039300009F488C0803251F78093E70114C08034C5
:1039400009F49DC040F48033B9F38833F9F68093CD
:10395000E70185ECB0C0803509F485C0883509F4ED
:1039600096C0883499F60E948C19D0CF883909F412
:103970008CC038F5883729F050F4883611F080373C
:1039800029F683E08093E8011092E60157C0883859
:1039900009F47BC0803919F0803809F0B7CF8091E5
:1039A000E601803208F071C0E091E60181E08E0FFF
:1039B0008093E6018091BB00F0E0EA53FE4F8083E4
:1039C0003DC0803B39F0E0F4803A09F479C0883A90
:1039D00009F09CCF84E08093E8011092C501109219
:1039E000C401E0911402F091150209958091C4017F
:1039F00081110FC081E08093C4011092A40109C01D
:103A0000803C09F4A6CF883C09F4A3CF883B09F099
:103A10007DCFE091C50181E08E0F8093C501F0E07C
:103A2000EC55FE4F80818093BB009091C501809141
:103A3000C40129C080910D028093BB0085EC809366
:103A4000BC0064CF90910C0280910B02981758F53E
:103A5000E0910C0281E08E0F80930C02F0E0E551C2
:103A6000FE4F8081E9CFE0910C0281E08E0F8093C0
:103A70000C028091BB00F0E0E551FE4F80839091F5
:103A80000C0280910B029817C8F285E8D8CFE0911C
:103A90000C0281E08E0F80930C028091BB00F0E05D
:103AA000E551FE4F80838091EA0181115CCF81E076
:103AB0008093E90184EA8093BC001092E80126CF4C
:103AC00085EC8093BC001092E8018091E601803281
:103AD00030F4E091E601F0E0EA53FE4F108260918D
:103AE000E60170E0E0911602F091170286EC91E099
:103AF00009951092E6010ACF1092E70134CFCF93D7
:103B0000DF931092C2031092C10388EE93E0A0E00D
:103B1000B0E08093C3039093C403A093C503B09314
:103B2000C60384E191E09093C0038093BF03109299
:103B3000DE031092DD0320E830E03093E0032093B1
:103B4000DF0380E490E09093E2038093E1033093FD
:103B5000E4032093E3039093E6038093E50310923C
:103B6000F1031092E8031092E7031092EA03109217
:103B7000E90381E08093F0038093EF032FEF3FEFA1
:103B80003093EE032093ED033093EC032093EB038B
:103B90008093F2031092F3031092F5031092F40352
:103BA00086E291E09093DC038093DB031092F703AD
:103BB0001092F6031092F9031092F8031092FB038F
:103BC0001092FA038EE08093FF038AE08093000452
:103BD0008BE0809301048CE0809302048DE080935D
:103BE000030480E58093190410921A0462E082E0D5
:103BF0000E94BE0662E083E00E94BE06E2EBFBE0AC
:103C0000E491F0E0EE0FFF1FEA55F44FA591B49157
:103C1000B093D003A093CF03E4E9FBE04491409339
:103C2000D303E3EBFBE0E491F0E0EE0FFF1FEA5576
:103C3000F44FC591D491D093D203C093D103E5E959
:103C4000FBE0E491E093D4031092D6031092D703E3
:103C50001092D8031092D9032BE33FE1C9010197D9
:103C6000F1F79C91842F892391E009F490E08881F9
:103C7000E82309F092602FEC33E09093D503309362
:103C8000CC032093CB0384E396E1909307018093C8
:103C90000601809169008C7F816080936900E89AB9
:103CA00081E08093DA033093CE032093CD038AE33F
:103CB00096E1909309018093080180916900837FC8
:103CC000846080936900E99A82E08093DA03DF914F
:103CD000CF910895CF93DF93CDB7DEB760970FB63E
:103CE000F894DEBF0FBECDBF789484B5826084BDEA
:103CF00084B5816084BD85B5826085BD85B58160F0
:103D000085BD80916E00816080936E00109281006D
:103D10008091810082608093810080918100816028
:103D200080938100809180008160809380008091E9
:103D3000B10084608093B1008091B0008160809375
:103D4000B00080917A00846080937A0080917A003C
:103D5000826080937A0080917A00816080937A00FB
:103D600080917A00806880937A001092C1000E944E
:103D7000E4192091B2033091B303265A3D4FF90163
:103D8000E05CFE4F80818F7090E001969093590225
:103D900080935802265B3E4FF901808190E00196A6
:103DA00090935502809354028091FA039091FB0303
:103DB000892B11F10E9469162091E1033091E203F1
:103DC0008091DF039091E003213231050CF0CAC2EB
:103DD000B9016052710977FF02C06F5F7F4F75951F
:103DE00067958357910997FD019600E210E023E75C
:103DF00030E04EE456E0C9C22091E1033091E20385
:103E0000C901079697FD0796B3E095958795BA95F2
:103E1000E1F72091DF033091E003AC01429FC00144
:103E2000439F900D529F900D11240E94942C9093CB
:103E3000FB038093FA03892B09F0BCCF60E086E096
:103E40000E94BE0660E081E10E94BE0661E084E05F
:103E50000E94BE0661E089E00E94BE0662E08FE03B
:103E60000E94BE0662E080E10E94BE0662E088E039
:103E70000E94BE0661E087E00E94BE0661E085E028
:103E80000E94BE0660E084E00E94900660E087E049
:103E90000E94900670E060E089E00E94FA0670E0FF
:103EA00060E085E00E94FA06109219021092180252
:103EB0001092BC031092BB030E9466118FE096E043
:103EC000909315028093140280E196E0909317027C
:103ED000809316028CE08093B8008091DA038230E0
:103EE00008F03FC4F8948FEC93E00E94F2158091A3
:103EF000D6039091D703A091D803B091D9037894B9
:103F00008093020190930301A0930401B0930501F3
:103F10006EEE7AE0CE0101967C010E94E72B0E94B2
:103F2000691682E08093EF038093F00321E030E094
:103F30003093EC032093EB031092EE031092ED0309
:103F400022E130E03093E8032093E70327E130E0FB
:103F50003093EA032093E9031F9293E09F931F920B
:103F60008F93FF92EF9284E392E09F938F930E944E
:103F7000CC2D84E392E00E94401628E130E046E632
:103F800050E062E170E08EE090E00E94B70F0E9486
:103F900046146CED75E080E090E00E947C070E9482
:103FA00043190FB6F894DEBF0FBECDBF44E3242EF5
:103FB00042E0342E11E081E10E946706019751F43E
:103FC0008091BA03811106C01093BA031092B9030D
:103FD0001092B80386E00E946706019709F07BC043
:103FE0008091B703811177C01093B7031093B60384
:103FF0008090B4039090B503C090B203D090B30307
:10400000A090B803B090B903A091AE03B091AF03F4
:1040100028EE33E00E945F2C20E030E140E050E0E9
:104020000E943A2C29013A0134E0CC0CDD1C3A956F
:10403000E1F7D401892859F4F601EA0DFB1DEE0FD2
:10404000FF1FE65AFD4FA081B181AF73BB2725E862
:1040500035E441E050E00E94662CA30192010E94E9
:104060003A2CC9010E941113F601EA0DFB1DEE0F57
:10407000FF1FE65AFD4F808191818F739927892B0D
:1040800021F061E084E00E949006CA0CDB1CCC0C9D
:10409000DD1C9601265A3D4F6901F9018181869503
:1040A0008D871E866D857E85660F771F85E00E9451
:1040B000FA06F601808187FB882780F98F87188AA6
:1040C0008FEF2F853889829FB001839F700D112457
:1040D00089E00E94FA0686E00E946706892B09F0B3
:1040E000BDC08091B703882309F4B8C01092B7030C
:1040F000A090B203B090B3038090B8039090B9033E
:104100006501F4E0CC0CDD1CFA95E1F7C80CD91C74
:10411000CC0CDD1CA601465A5D4F6A01FA01608194
:104120007181B6E076956795BA95E1F7617087E0A1
:104130000E949006F6018081918190FD04C060E0AC
:1041400084E00E949006FFEF8F1A9F0A9092B903B5
:104150008092B8038091580290915902881699066E
:104160000CF47CC080915602909157020196909376
:1041700057028093560220915402309155028217C3
:104180009307CCF080915202909153021092570203
:1041900010925602A816B90671F4F501E656FC4FC6
:1041A000808190E0E4E095958795EA95E1F790931A
:1041B0005302809352021092B9031092B803809177
:1041C0005202909153029093B3038093B203865AA4
:1041D0009D4FFC01E65BFE4F208130E02F5F3F4F9B
:1041E0003093550220935402805C9E4FFC018081E5
:1041F0008F7090E0019690935902809358028091BD
:10420000500290915102892B49F562E87BE084E4E9
:1042100092E00E94E72B8091B3038F938091B203C9
:104220008F9384E492E09F938F933F922F920E940A
:10423000CC2D84E392E00E944D166091540270915F
:104240005502809156029091570201960E94C8161D
:104250000F900F900F900F900F900F9081E10E94A0
:104260006706892B29F48091BA0381111092BA0351
:104270008091DA03823008F076C2F8948FEC93E0F4
:104280000E94F2158090D6039090D703A090D80397
:10429000B090D9037894C501B40124E030E040E047
:1042A00050E00E943A2C29013A016091020170917C
:1042B0000301809104019091050124E030E040E089
:1042C00050E00E943A2C24153505460557050CF0A0
:1042D0004CC28092020190920301A0920401B0921C
:1042E000050121E030E0309333022093320268E090
:1042F00070E090E080E00E94D015809331026FE082
:1043000070E081E090E00E94D015082F8093300289
:1043100060E170E082E090E00E94D01580932F026F
:10432000C0905002D090510254E1C516D10408F05B
:1043300020C3F601E256FE4D0C94592CCA23562494
:10434000FC249926EF2662278C27D327FD27B42546
:1043500017262728D5283229BB29262ADC2ADC2A39
:10436000132B632BB9016054710977FF02C06F5F93
:104370007F4F759567958255910997FD019600E4E9
:1043800010E022E530E04EE258E0959587950E94D6
:10439000301082E08093FD038091F8039091F9033F
:1043A000892B09F4E8C08091E1039091E2038097A2
:1043B00009F0DFC08CE38093FC0310921902109285
:1043C00018021092BC031092BB030E9466118FE08A
:1043D00096E0909315028093140280E196E090930A
:1043E0001702809316028091030487FD1EC061E0CE
:1043F0000E94BE0661E0809103040E94900661E085
:1044000070E080E090E00E947C0760E0809103040F
:104410000E9490066AE070E080E090E00E947C07D5
:1044200061E0809103040E9490068091F8039091CE
:10443000F903892B09F45EC1209110043091110415
:10444000409112045091130460E074E284EF90E014
:104450000E94182C20513109410951095695479560
:10446000379527952093B80064E080E496E00E9499
:104470002F136091E10361508BED93E00E94E413F0
:1044800064E08CE396E00E942F138091FD0360E1CD
:10449000813009F064E18BED93E00E94E41364E065
:1044A00088E396E00E942F138FE880931804809190
:1044B000DF039091E0038038910509F034C18091C9
:1044C000E1039091E2038034910509F03CC18091B1
:1044D000FD03813009F025C18FE98093180412E1B2
:1044E0006AED8BED93E00E94E413612F8BED93E076
:1044F0000E94E41361E88BED93E00E94E413609165
:1045000018048BED93E00E94E41369ED8BED93E0CA
:104510000E94E4138091FD0362E2813009F061EFB3
:104520008BED93E00E94E41366E082E396E00E9444
:104530002F138091F8039091F903892B09F407C197
:1045400020911404309115044091160450911704E1
:1045500060E074E284EF90E00E94182C2051310951
:104560004109510956954795379527952093B800ED
:1045700065CC8DE320CF61E0809101040E94BE06EE
:1045800061E0809102040E94BE0680910104082E21
:10459000000C990BFC01E055F44FE491F0E0EE0FB4
:1045A000FF1FEC5BF94F2591349130930904209360
:1045B0000804FC01EE56F44FE491E0930E04809160
:1045C0000204082E000C990BFC01E055F44FE49115
:1045D000F0E0EE0FFF1FEC5BF94FA591B491B093A3
:1045E0000B04A0930A04FC01EE56F44FE491E0930F
:1045F0000F048C91E82BEC938091F6039091F703D4
:10460000892B09F434C01FB7F894809113028111EB
:1046100027C0EAEBFBE08491ECE9FBE09491E82F02
:10462000F0E0EE0FFF1FE85DF94FA591B491EC911A
:10463000E92321F461E08AE00E94900661E08AE0CB
:104640000E94BE068CB580618CBD8CB580648CBD2B
:1046500061E08DE00E94BE0661E08BE00E94BE0634
:10466000809113028F5F809313021FBFBCCE61E065
:104670008091FF030E94BE0661E0809100040E94C9
:10468000BE068091FF03082E000C990BFC01E0553B
:10469000F44FE491F0E0EE0FFF1FEC5BF94F259132
:1046A00034913093050420930404FC01EE56F44F3A
:1046B000E491E0930C0480910004082E000C990B07
:1046C000FC01E055F44FE491F0E0EE0FFF1FEC5BCE
:1046D000F94FA591B491B0930704A0930604FC018F
:1046E000EE56F44FE491E0930D048C91E095E823AD
:1046F000EC9379CE8091F6039091F703892B31F0FA
:104700008091190490911A040E940D0AE0910A0404
:10471000F0910B04908180910F0480958923808310
:10472000A3CE8FECDACE8036910569F48091E10357
:104730009091E203409739F48091FD03813029F490
:1047400080E18093180412E0CBCE8FEAFACFE0919B
:104750000A04F0910B04808190910F04892B8083CF
:104760006DCBF894C4CBF8948DCD421653066406F5
:1047700075060CF0BCCD8092020190920301A092CC
:104780000401B09205014FEF5FEF50933302409365
:104790003202ADCD80912D0290912E020E947C18A4
:1047A00088E00E946706892B09F048C081E090E00C
:1047B000909351028093500262E87BE0C7010E940F
:1047C000E72B0E94691682E08093EF038093F00349
:1047D000E1E0F0E0F093EC03E093EB031092EE03E2
:1047E0001092ED0328E130E04AE550E062E170E02C
:1047F00083E190E00E94B70F87E190E09093E80397
:104800008093E7039093EA038093E9038091530236
:104810008F93809152028F93FF92EF923F922F924B
:104820000E94CC2D84E392E00E9440161093B603C0
:104830000F900F900F900F900F900F90809130027B
:10484000882321F182E090E09093510280935002FE
:104850008091B2039091B303909327028093260234
:10486000809124029091250297FD0AC0C0905802C1
:10487000D09059028C159D05BCF0F1E0CF1AD108FB
:10488000D0922502C09224020E943A1880912F02F1
:10489000882309F46EC02BE030E03093510220935E
:1048A00050020E94431765C06C01EACF002309F44F
:1048B0009DC0882309F49DC041E050E0509333022D
:1048C0004093320280913202909133020097F1F1CD
:1048D0002091520230915302820F931F8A3091052A
:1048E00014F089E090E097FF02C090E080E09093A0
:1048F000530280935202109233021092320222E04D
:104900002093EF032093F0032FE530E03093E8038A
:104910002093E70327E130E03093EA032093E90393
:104920009F938F9380E591E09F938F933F922F9277
:104930000E94CC2D84E392E00E9440161093B603AF
:104940000F900F900F900F900F900F9088E00E94A3
:104950006706892B71F010925102109250020E944A
:10496000431910922E0210922D0290E080E00E94D6
:104970007C1880912D0290912E02019667E070E0E4
:104980000E94042C90932E0280932D022FB7F8944E
:10499000609128027091290280912A0290912B0245
:1049A0002FBF28E532E040E050E00E94182C21E0C3
:1049B0006C3271408105910508F420E020932C02AF
:1049C00080912D0290912E02892B41F48091B603A3
:1049D000882321F00E9446141092B60380E090E0F4
:1049E000892B09F4E8CA0E940000E4CA811164CF4F
:1049F00069CF8FEF9FEF6CCF80913202909133029D
:104A00000097E9F02091240230912502820F931F34
:104A100097FDA7C020915802309159028217930741
:104A200014F0C901019790932502809324021092FB
:104A30003302109232020E94A0171093B6038091A5
:104A40003002882371F010925102109250020E949D
:104A5000431910922E0210922D0290E080E00E94E5
:104A60007C1880913102882341F083E090E090939C
:104A70005102809350020E94631780912F02882375
:104A800009F477CF89E090E090935102809350022F
:104A90008091260290912702865A9D4FFC01E65B89
:104AA000FE4F208130E03093010120930001805CB3
:104AB0009E4FFC01808190E074E0959587957A95F2
:104AC000E1F790932302809322020E9469162EE35D
:104AD00030E04CE450E062E070E082E090E00E9460
:104AE000B70F64E07BE084E492E00E94E72B82E071
:104AF0008093EF038093F0032BE030E03093E803E2
:104B00002093E70386E090E09093EA038093E90323
:104B100084E492E00E9440161093EF031093F00398
:104B20006AEF7AE084E492E00E94E72B809127020A
:104B30008F93809126028F9384E492E09F938F93CA
:104B40003F922F920E94CC2D84E392E00E944D165A
:104B50001093B6030F900F900F900F900F900F903F
:104B600008CF90E080E05FCF209132023091330295
:104B700021153105B9F08091220290912302820F14
:104B8000931F8A30910514F089E090E097FF02C0EE
:104B900090E080E0909323028093220210923302EF
:104BA000109232026AE07BE0C7010E94E72B8091FD
:104BB00023028F93809122028F93FF92EF923F9274
:104BC0002F920E94CC2D4BE050E05093E80340938D
:104BD000E7038EE190E09093EA038093E90310935A
:104BE000EF031093F00384E392E00E9440161093C9
:104BF000B6030F900F900F900F900F900F90809131
:104C00002F02882341F082E090E09093510280933C
:104C100050020E943A1880913102882309F4A9CEEB
:104C20008AE090E09093510280935002A2CE2091AE
:104C300032023091330221153105C1F0809100011B
:104C400090910101820F931F8F3F910519F014F08D
:104C50008FEF90E097FF02C090E080E09093010119
:104C600080930001109233021092320267E17BE0E0
:104C7000C7010E94E72B80910001909101010196EC
:104C80009F938F93FF92EF923F922F920E94CC2D91
:104C90008BE090E09093E8038093E70388E290E054
:104CA0009093EA038093E9031093EF031093F003CA
:104CB00084E392E00E9440161093B6030F900F9089
:104CC0000F900F900F900F9080912F02882341F04A
:104CD00082E090E090935102809350020E943A1833
:104CE00080913102882309F444CEE0912602F091AC
:104CF0002702E65AFD4FDF01A65BBE4F80910001FF
:104D00008C93E05CFE4F80818F7020912202309165
:104D1000230264E0220F331F6A95E1F7822B808320
:104D200082E090E090935102809350020E943A18E2
:104D300020CE80912D0290912E020E942C1A8091FB
:104D40003002882341F082E090E0909351028093FA
:104D500050020E943A1880913102882309F409CE4A
:104D6000E0912602F091270244E0EE0FFF1F4A95E2
:104D7000E1F78091240290912502E80FF91FEE0FD0
:104D8000FF1FE65AFD4F808191819093210280930D
:104D9000200280911E0290911F0282309105A9F09D
:104DA00044F4009779F0019709F0E3CD88E090E0B2
:104DB00039CF8330910561F0049709F0DACD86E0B0
:104DC00090E030CF84E090E02DCF85E090E02ACFD6
:104DD000E7E0F0E0F0935102E0935002CACD8091F9
:104DE000260290912702609124027091250224E00E
:104DF000880F991F2A95E1F7FC01E60FF71FEE0FC8
:104E0000FF1FE65AFD4F408151819A012F733327CE
:104E1000E0913202F0913302309779F02E0F3F1F6C
:104E20002233310514F021E330E037FF02C030E0D7
:104E300020E01092330210923202FC01E60FF71FBD
:104E4000EE0FFF1FE65AFD4F407C242B352B31839C
:104E5000208390E080E00E942C1A1093B60380918A
:104E60003002882309F183E090E09093510280930F
:104E70005002E0912602F091270204E0EE0FFF1F9E
:104E80000A95E1F78091240290912502E80FF91F1D
:104E9000EE0FFF1FE65AFD4F8091200290912102F4
:104EA000918380830E94631780913102882309F4E3
:104EB00060CD83E090E090935102809350020E9475
:104EC000631757CD80913202909133020097F9F029
:104ED0002091240230912502E0912602F0912702D0
:104EE000A4E0EE0FFF1FAA95E1F7E20FF31FEE0F0C
:104EF000FF1FE65AFD4F208131811816190654F420
:104F0000206831832083109233021092320282E0B3
:104F100090E0A1CF2F77F5CF8091260290912702C4
:104F2000609124027091250204E0880F991F0A9570
:104F3000E1F7FC01E60FF71FEE0FFF1FE65AFD4FEA
:104F4000408151819A01232F33272695E091320227
:104F5000F09133023097A9F005E00E9FD0010F9F2A
:104F6000B00D11242A0F3B1F2E37310514F02DE709
:104F700030E037FF02C030E020E0109233021092A0
:104F80003202FC01E60FF71FEE0FFF1FE65AFD4F3E
:104F90005170322F2227330F242B352B318320835E
:104FA00084E090E058CF80913202909133020097D4
:104FB000F9F02091240230912502E0912602F0912F
:104FC000270264E0EE0FFF1F6A95E1F7E20FF31F7F
:104FD000EE0FFF1FE65AFD4F20813181181619068A
:104FE00054F42064318320831092330210923202F1
:104FF00083E090E030CF2F7BF5CF8091320290910B
:1050000033020097F9F02091240230912502E091BB
:105010002602F091270244E0EE0FFF1F4A95E1F7C8
:10502000E20FF31FEE0FFF1FE65AFD4F2081318183
:105030001816190654F4316031832083109233021C
:105040001092320281E090E006CF3E7FF5CF2091B2
:1050500032023091330221153105B9F080911C02E2
:1050600090911D02820F931F8630910514F085E008
:1050700090E097FF02C090E080E090931D02809343
:105080001C02109233021092320280911C02909105
:105090001D0222E02093EF032093F00322E130E091
:1050A0003093E8032093E70328E030E03093EA03ED
:1050B0002093E9038230910509F442C07CF5009702
:1050C000E1F166E37BE0019789F11093B6038091EB
:1050D0002F02882371F010925102109250020E9408
:1050E000431910922E0210922D0290E080E00E944F
:1050F0007C1880913102882309F43BCC80911C02FA
:1051000090911D0282309105E9F11CF50097B9F1EB
:10511000019709F02ECC8EE090E084CD843091058B
:10512000A9F08CF062E27BE0059779F6C7010E9456
:10513000E72BC7010E944016C8CF6BE37BE0F6CF98
:1051400061E37BE0F3CF6CE27BE0F0CF67E27BE0F2
:10515000EDCF84309105E1F0C4F0059709F009CC5A
:1051600083E190E090935102809350028091AE03CE
:105170009091AF0390931B0280931A02FACB8CE0BC
:1051800090E050CD80E190E04DCD81E190E04ACDBE
:1051900042E150E0509351024093500281E090E090
:1051A0009093B5038093B403E4CB20913202309105
:1051B000330221153105B9F0809126029091270222
:1051C000820F931F8A30910514F089E090E097FFD9
:1051D00002C090E080E09093270280932602109214
:1051E00033021092320260E47BE0C7010E94E72B99
:1051F000809127028F93809126028F93FF92EF92E6
:105200003F922F920E94CC2D8CE090E09093E80387
:105210008093E7038EE190E09093EA038093E903A3
:105220001093EF031093F00384E392E00E94401682
:105230001093B6030F900F900F900F900F900F9058
:1052400080913102882309F421CB8DE090E0909386
:10525000510280935002E1E0F0E0F0932502E093E8
:10526000240214CB209132023091330221153105F2
:10527000C1F08091240290912502820F931F813109
:10528000910514F080E190E01816190614F081E001
:1052900090E09093250280932402109233021092A2
:1052A00032026CE47BE0C7010E94E72B809125026B
:1052B0008F93809124028F93FF92EF923F922F92CF
:1052C0000E94CC2D8CE090E09093E8038093E7035C
:1052D00088E290E09093EA038093E9031093EF0350
:1052E0001093F00384E392E00E9440161093B603FB
:1052F0000F900F900F900F900F900F9080913102B0
:10530000882309F4C3CA8091240290912502209138
:10531000260230912702B90105E0660F771F0A9532
:10532000E1F750E040E04817590764F4FA01EE0F46
:10533000FF1FE60FF71FE65AFD4F118210824F5FE5
:105340005F4FF1CFA901465A5D4FFA01E05CFE4F75
:1053500081508F702295207F280F2083465B5E4FFF
:10536000FA0110822BE030E030935102209350027A
:105370000E9443178BCA20913202309133022115CB
:105380003105B9F08091000190910101820F931FC6
:105390008A30910514F089E090E097FF02C090E018
:1053A00080E09093010180930001109233021092EB
:1053B00032028091000190910101209126023091EA
:1053C00027028217930749F401966AE070E00E9471
:1053D000042C909327028093260268E57BE0C701A6
:1053E0000E94E72B809101018F93809100018F93A0
:1053F000FF92EF923F922F920E94CC2D8CE090E092
:105400009093E8038093E7038EE190E09093EA03A2
:105410008093E9031093EF031093F00384E392E089
:105420000E9440161093B6030F900F900F900F90AC
:105430000F900F9080913102882309F427CA8FE0E2
:1054400090E0909351028093500220CA2091320242
:105450003091330221153105C9F1809126029091D6
:105460002702820F931F9093270280932602409178
:105470000001509101018417950799F48930910535
:1054800039F488E090E0909327028093260209C0C7
:10549000009709F08EC041E050E0509327024093FE
:1054A000260280912602909127028A30910514F0FD
:1054B00089E090E097FF02C090E080E0909327029F
:1054C00080932602109233021092320263E67BE050
:1054D000C7010E94E72B809127028F9380912602BB
:1054E0008F93FF92EF923F922F920E94CC2D8CE0EF
:1054F00090E09093E8038093E70388E290E0909334
:10550000EA038093E9031093EF031093F00384E31D
:1055100092E00E9440161093B6030F900F900F90E8
:105520000F900F900F9080913102882309F4AEC93B
:105530006091000170910101FB01E656FC4F008172
:105540000F70A02EB12C8091260290912702F5E0D9
:10555000660F771FFA95E1F76C01A5E0CC0CDD1C16
:10556000AA95E1F750E040E09A01220F331FD901DC
:10557000A60FB71FA65ABD4F0D90BC91A02D2C0DA4
:105580003D1D265A3D4FF901B183A0834F5F5F4F08
:10559000A416B5064CF79C01265A3D4FF901E05C74
:1055A000FE4F8295807F080F0083265B3E4FF901F6
:1055B000D8CE820F931F67CF6EE67BE0C7010E94B3
:1055C000E72B1093EF031093F00342E150E0509368
:1055D000E8034093E70384E290E09093EA0380932A
:1055E000E903C7010E9440161093B60380912F0271
:1055F000882341F0EBE0F0E0F0935102E093500299
:105600000E94431780913102882309F4B2C9809126
:10561000500290915102409719F40E94C4199BC9FD
:105620000E94E41998C92091320230913302211569
:105630003105C1F08091B4039091B503820F931F9F
:105640008233910514F081E390E01816190614F0E6
:1056500081E090E09093B5038093B40310923302FD
:10566000109232026091B4037091B50361507109D8
:10567000C7010E94891682E08093EF038093F003B4
:1056800086E190E09093E8038093E70324E230E022
:105690003093EA032093E903C7010E944016109358
:1056A000B60380912F02882309F463C94BE050E0D0
:1056B00050935102409350020E9443171092B50339
:1056C0001092B40356C92091320230913302211551
:1056D000310501F185E0829FA001839F500D1124C7
:1056E0008091AE039091AF03840F951F833854E1EE
:1056F000950714F082E894E18E38E2E19E0714F4F5
:105700008EE892E19093AF038093AE031092330240
:105710001092320267E77BE0C7010E94E72B80917D
:10572000AE039091AF0368EE73E00E94042C9F9348
:105730008F937F936F93FF92EF923F922F920E94ED
:10574000CC2D1093EF031093F00322E130E030935F
:10575000E8032093E70344E250E05093EA034093C8
:10576000E90384E392E00E9440161093B6030FB65B
:10577000F894DEBF0FBECDBF80912F02882381F049
:1057800080911A0290911B029093AF038093AE0315
:10579000EBE0F0E0F0935102E09350020E944317D7
:1057A00080913102882309F4E4C80E94C41973C8A7
:1057B00086E291E09093DC038093DB038091FA030F
:1057C0009091FB03009711F00C94302D0895FB018C
:1057D000DC0105900D920020E1F70895F999FECFC4
:1057E00092BD81BDF89A992780B50895262FF99921
:1057F000FECF1FBA92BD81BD20BD0FB6F894FA9AB4
:10580000F99A0FBE0196089597FB072E16F400949F
:1058100007D077FD09D00E94712C07FC05D03EF41B
:10582000909581959F4F0895709561957F4F08954C
:10583000A1E21A2EAA1BBB1BFD010DC0AA1FBB1F94
:10584000EE1FFF1FA217B307E407F50720F0A21B06
:10585000B30BE40BF50B661F771F881F991F1A9473
:1058600069F760957095809590959B01AC01BD019D
:10587000CF010895052E97FB1EF400940E94512C31
:1058800057FD07D00E94182C07FC03D04EF40C944F
:10589000512C50954095309521953F4F4F4F5F4F7C
:1058A000089590958095709561957F4F8F4F9F4F8C
:1058B0000895EE0FFF1F0590F491E02D09940E94CA
:1058C000852CB7FF0895821B930B08950E94852CA9
:1058D000A59F900DB49F900DA49F800D911D112444
:1058E0000895AA1BBB1B51E107C0AA1FBB1FA61727
:1058F000B70710F0A61BB70B881F991F5A95A9F779
:1059000080959095BC01CD010895A29FB001B39FF1
:10591000C001A39F700D811D1124911DB29F700DB8
:10592000811D1124911D08950F931F93CF93DF9331
:105930008230910510F482E090E0E0911D04F09136
:105940001E0430E020E0B0E0A0E0309799F421158B
:10595000310509F44AC0281B390B24303105D8F52C
:105960008A819B816115710589F1FB019383828393
:10597000FE0111C0408151810281138148175907EE
:10598000E0F04817590799F4109761F012960C93BC
:10599000129713961C933296CF01DF91CF911F91EE
:1059A0000F91089500931D0410931E04F4CF211548
:1059B000310551F04217530738F0A901DB019A0174
:1059C000BD01DF01F801C1CFEF01F9CF90931E04B3
:1059D00080931D04CDCFFE01E20FF31F81939193BD
:1059E0002250310939832883D7CF20911B0430916D
:1059F0001C04232B41F420910C0130910D013093B4
:105A00001C0420931B0420910A0130910B012115E5
:105A1000310541F42DB73EB740910E0150910F0171
:105A2000241B350BE0911B04F0911C04E217F307D3
:105A3000A0F42E1B3F0B2817390778F0AC014E5FFE
:105A40005F4F2417350748F04E0F5F1F50931C041B
:105A500040931B04819391939FCFF0E0E0E09CCFB3
:105A6000CF93DF930097E9F0FC0132971382128203
:105A7000A0911D04B0911E04ED0130E020E01097CC
:105A8000A1F420813181820F931F20911B0430915A
:105A90001C042817390709F061C0F0931C04E09337
:105AA0001B04DF91CF910895EA01CE17DF07E8F5D7
:105AB0004A815B819E0141155105B1F7E901FB83E4
:105AC000EA8349915991C40FD51FEC17FD0761F482
:105AD000808191810296840F951FE90199838883C3
